:100000000C942A000C9447000C9447000C94470071
:100010000C9447000C9447000C9447000C94470044
:100020000C9447000C9447000C9447000C94470034
:100030000C9447000C94E8150C9447000C9447006E
:100040000C9447000C9447000C9447000C94470014
:100050000C94470011241FBECFE5D8E0DEBFCDBF12
:1000600011E0A0E6B0E0E6E7F1E302C005900D92F2
:10007000A037B107D9F711E0A0E7B1E001C01D92A8
:10008000AA37B107E1F70E94D8170C94B9180C945D
:100090000000EF92FF920F931F937B018C0120E0F1
:1000A00030E040E05FE40E94F50388238CF0C80153
:1000B000B70120E030E040E05FE40E94C1010E940F
:1000C00055049B01AC01205030404040504806C0D0
:1000D000C801B7010E9455049B01AC01B901CA01D6
:1000E0001F910F91FF90EF900895A0E0B0E0EBE733
:1000F000F0E00C948218DC012B01FA019C91923003
:1001000008F439C1EB018881823008F433C194309E
:1001100069F4843009F02FC111969C91119789815F
:10012000981709F428C1A0E6B0E025C1843009F48D
:1001300021C18230A9F4923009F01DC19A01AD01AC
:1001400088E0EA010990AE01E90109929E0181501F
:10015000C1F7E201898111969C918923818308C1AD
:10016000923009F407C112962D903C901397EB0141
:100170008A819B811496AD90BD90CD90DC901797AD
:10018000EC80FD800E811F819101281B390BB90184
:1001900037FF04C066277727621B730B6032710537
:1001A0000CF061C0121613066CF537014801062EDB
:1001B00004C096948794779467940A94D2F721E0C8
:1001C00030E040E050E004C0220F331F441F551FB1
:1001D0006A95D2F721503040404050402E213F21B7
:1001E00040235123211531054105510521F021E01E
:1001F00030E040E050E079018A01E628F72808293C
:1002000019293CC0232BD1F1260E371E350146019A
:10021000062E04C096948794779467940A94D2F734
:1002200021E030E040E050E004C0220F331F441FC3
:10023000551F6A95D2F721503040404050402A2146
:100240003B214C215D21211531054105510521F04E
:1002500021E030E040E050E059016A01A628B728CB
:10026000C828D9280BC0821593052CF01C01AA249C
:10027000BB24650103C0EE24FF24870111969C91E5
:10028000D20111968C91981709F445C0992339F041
:10029000A80197012A193B094C095D0906C0A6016E
:1002A00095012E193F09400B510B57FD08C01182D3
:1002B0003382228224833583468357831DC081E0A5
:1002C00081833382228288279927DC01821B930B4A
:1002D000A40BB50B84839583A683B7830DC0220F2F
:1002E000331F441F551F24833583468357838281E0
:1002F000938101979383828324813581468157813D
:10030000DA01C9010197A109B1098F5F9F4FAF4F72
:10031000BF4328F30BC0918333822282EA0CFB1C7B
:100320000C1D1D1DE482F5820683178383E0808304
:10033000248135814681578157FF1AC0C901AA27F8
:1003400097FDA095BA2F81709070A070B0705695EF
:10035000479537952795822B932BA42BB52B848318
:100360009583A683B7838281938101969383828349
:10037000DF0101C0D201CD01CDB7DEB7E2E10C94BF
:100380009E18A0E2B0E0E7ECF1E00C948E186983CF
:100390007A838B839C832D833E834F835887E9E048
:1003A000EE2EF12CEC0EFD1ECE010196B7010E943F
:1003B00046068E010F5E1F4FCE010596B8010E94C2
:1003C00046068A8991E089278A8BC701B801AE0168
:1003D000475E5F4F0E9475000E947105A096E6E09F
:1003E0000C94AA18A0E2B0E0E8EFF1E00C948E18AB
:1003F00069837A838B839C832D833E834F835887C5
:10040000F9E0EF2EF12CEC0EFD1ECE010196B701A6
:100410000E9446068E010F5E1F4FCE010596B80161
:100420000E944606C701B801AE01475E5F4F0E94B9
:1004300075000E947105A096E6E00C94AA18A0E24F
:10044000B0E0E5E2F2E00C94821869837A838B8352
:100450009C832D833E834F835887CE010196BE0136
:10046000675F7F4F0E944606CE010596BE016F5E14
:100470007F4F0E9446069985923088F089898230A4
:10048000C8F0943019F4823051F404C0843029F457
:10049000923081F480E690E0C6C0923049F420E0CA
:1004A0009A858A89981321E02A87CE010996BBC0D4
:1004B000823049F420E09A858A89981321E02A8BBA
:1004C000CE014196B0C02D843E844F8458886D88FB
:1004D0007E888F88988CEE24FF248701AA24BB2471
:1004E000650140E050E060E070E0E0E0F0E0C10174
:1004F00081709070892BE9F0E60CF71C081D191D1E
:100500009A01AB012A0D3B1D4C1D5D1D80E090E062
:10051000A0E0B0E0E614F7040805190520F481E036
:1005200090E0A0E0B0E0BA01A901480F591F6A1F8E
:100530007B1FAA0CBB1CCC1CDD1C97FE08C081E0F5
:1005400090E0A0E0B0E0A82AB92ACA2ADB2A3196B6
:10055000E032F10549F0660C771C881C991C569412
:10056000479437942794C3CFFA85EA892B893C892D
:100570008B859C85280F391F2E5F3F4F17C0CA01FE
:1005800081709070892B61F016950795F794E79428
:1005900080E090E0A0E0B0E8E82AF92A0A2B1B2BC3
:1005A00076956795579547952F5F3F4F77FDE7CF36
:1005B0000CC0440F551F661F771F17FD4160EE0CDE
:1005C000FF1C001F111F21503040403090E05907A0
:1005D00090E0690790E4790760F32B8F3C8FDB0193
:1005E000CA018F779070A070B07080349105A1051A
:1005F000B10561F447FD0AC0E114F10401051105DC
:1006000029F0405C5F4F6F4F7F4F40781A8EFE1786
:1006100011F081E08A8F4D8F5E8F6F8F78A383E01A
:10062000898FCE0149960E947105A096E2E10C9453
:100630009E18A8E1B0E0EFE1F3E00C948A1869831A
:100640007A838B839C832D833E834F835887B9E0C5
:10065000EB2EF12CEC0EFD1ECE010196B7010E948F
:1006600046068E010F5E1F4FCE010596B8010E940F
:1006700046062985223008F47EC03989323010F4CC
:10068000B8017CC08A859A8989278A87243011F02D
:10069000223031F4231709F06EC060E670E06EC0BE
:1006A000343039F41D861E861F86188A1C861B86E8
:1006B00004C0323021F484E08987B7015FC02B8504
:1006C0003C858B899C89281B390B3C872B87ED84C3
:1006D000FE840F851889AD88BE88CF88D88CEA142F
:1006E000FB040C051D0540F4EE0CFF1C001F111F40
:1006F000215030403C872B8720E030E040E050E044
:1007000080E090E0A0E0B0E460E070E0EA14FB0478
:100710000C051D0540F0282B392B4A2B5B2BEA18C2
:10072000FB080C091D09B695A79597958795EE0CC2
:10073000FF1C001F111F6F5F7F4F6F31710531F775
:10074000DA01C9018F779070A070B0708034910584
:10075000A105B10561F427FD0AC0E114F10401050A
:10076000110529F0205C3F4F4F4F5F4F20782D87B8
:100770003E874F87588BBE01675F7F4FCB010E943A
:1007800071056896EAE00C94A618A8E1B0E0EBECDD
:10079000F3E00C948E1869837A838B839C832D837A
:1007A0003E834F83588789E0E82EF12CEC0EFD1E26
:1007B000CE010196B7010E9446068E010F5E1F4FC3
:1007C000CE010596B8010E9446068985823040F028
:1007D0008989823028F0C701B8010E94BE0601C095
:1007E0008FEF6896E6E00C94AA18A8E1B0E0EBEF72
:1007F000F3E00C948E1869837A838B839C832D831A
:100800003E834F83588789E0E82EF12CEC0EFD1EC5
:10081000CE010196B7010E9446068E010F5E1F4F62
:10082000CE010596B8010E9446068985823040F0C7
:100830008989823028F0C701B8010E94BE0601C034
:100840008FEF6896E6E00C94AA18A8E1B0E0EBE21E
:10085000F4E00C948E1869837A838B839C832D83B8
:100860003E834F83588789E0E82EF12CEC0EFD1E65
:10087000CE010196B7010E9446068E010F5E1F4F02
:10088000CE010596B8010E9446068985823040F067
:100890008989823028F0C701B8010E94BE0601C0D4
:1008A00081E06896E6E00C94AA18ACE0B0E0EBE5D5
:1008B000F4E00C94921869837A838B839C83CE0135
:1008C0000196BE016B5F7F4F0E9446068D8182308C
:1008D00061F1823050F1843021F48E81882351F10E
:1008E0002EC02F81388537FD20C06E812F31310514
:1008F0001CF06623F9F023C08EE190E0821B930B7D
:1009000029853A854B855C8504C056954795379572
:1009100027958A95D2F76623B1F05095409530958A
:1009200021953F4F4F4F5F4F0EC020E030E040E039
:1009300050E009C02FEF3FEF4FEF5FE704C020E02A
:1009400030E040E050E8B901CA012C96E2E00C9496
:10095000AE18A8E0B0E0EFEAF4E00C948A187B014E
:100960008C01611571058105910519F482E0898377
:1009700060C083E089838EE1C82ED12CDC82CB82DB
:10098000ED82FE820F831887C801B7010E942205FD
:10099000FC013197F7FF3BC0222733272E1B3F0B6B
:1009A00057016801022E04C0D694C794B794A79447
:1009B0000A94D2F740E050E060E070E081E090E01F
:1009C000A0E0B0E004C0880F991FAA1FBB1F2A95A2
:1009D000D2F70197A109B1098E219F21A023B1234C
:1009E0000097A105B10521F041E050E060E070E022
:1009F0004A295B296C297D294D835E836F83788723
:100A00008EE190E08E1B9F0B9C838B8312C03097EE
:100A100081F00E2E04C0EE0CFF1C001F111F0A9463
:100A2000D2F7ED82FE820F831887CE1ADF0ADC82AE
:100A3000CB821A82CE0101960E9471052896EAE0C7
:100A40000C94A618EF92FF920F931F937B018C01D9
:100A500080E0E81680E0F80681E0080780E01807EB
:100A600088F48FEFE816F1040105110531F028F044
:100A700088E090E0A0E0B0E017C080E090E0A0E067
:100A8000B0E012C080E0E81680E0F80680E00807D9
:100A900081E0180728F088E190E0A0E0B0E004C011
:100AA00080E190E0A0E0B0E020E230E040E050E003
:100AB000281B390B4A0B5B0B04C016950795F7945E
:100AC000E7948A95D2F7F701E859FF4F8081281BF8
:100AD000310941095109C9011F910F91FF90EF9010
:100AE0000895DF92EF92FF920F931F93FC01E48031
:100AF000F58006811781D1808081823048F480E0C2
:100B000090E0A0E1B0E0E82AF92A0A2B1B2BA5C04F
:100B1000843009F49FC0823021F4EE24FF24870141
:100B200005C0E114F1040105110519F4E0E0F0E05D
:100B300096C0628173819FEF623879070CF05BC0C9
:100B400022E83FEF261B370B2A3131052CF020E03D
:100B500030E040E050E02AC0B801A701022E04C0F6
:100B600076956795579547950A94D2F781E090E07E
:100B7000A0E0B0E004C0880F991FAA1FBB1F2A95F0
:100B8000D2F70197A109B1098E219F21A023B1239A
:100B90000097A105B10521F081E090E0A0E0B0E070
:100BA0009A01AB01282B392B4A2B5B2BDA01C901A7
:100BB0008F779070A070B07080349105A105B10559
:100BC00039F427FF09C0205C3F4F4F4F5F4F04C0EF
:100BD000215C3F4F4F4F5F4FE0E0F0E02030A0E05E
:100BE0003A07A0E04A07A0E45A0710F0E1E0F0E07D
:100BF00079018A0127C06038710564F5FB01E1586D
:100C0000FF4FD801C7018F779070A070B07080340B
:100C10009105A105B10539F4E7FE0DC080E490E02F
:100C2000A0E0B0E004C08FE390E0A0E0B0E0E80E08
:100C3000F91E0A1F1B1F17FF05C016950795F7948D
:100C4000E794319687E016950795F794E7948A958F
:100C5000D1F705C0EE24FF248701EFEFF0E06E2FFF
:100C6000679566276795902F9F77D794DD24D79453
:100C70008E2F8695492F462B582F5D29B701CA0123
:100C80001F910F91FF90EF90DF900895FC01DB0121
:100C9000408151812281622F6F7770E0221F2227CD
:100CA000221F9381892F880F822B282F30E0991FD4
:100CB0009927991F11969C93119721153105A9F534
:100CC000411551056105710511F482E037C082E8D4
:100CD0009FEF13969C938E9312979A01AB0167E056
:100CE000220F331F441F551F6A95D1F783E08C9361
:100CF0000DC0220F331F441F551F12968D919C91DA
:100D00001397019713969C938E931297203080E04F
:100D1000380780E0480780E4580758F314962D936D
:100D20003D934D935C93179708952F3F310579F4C8
:100D3000411551056105710519F484E08C930895FE
:100D400064FF03C081E08C9312C01C9210C02F5727
:100D5000304013963C932E93129783E08C9387E058
:100D6000440F551F661F771F8A95D1F7706414963C
:100D70004D935D936D937C93179708951F93DC01BA
:100D8000FB019C91923008F447C08081823008F4C6
:100D900043C0943051F411961C91843099F58181AF
:100DA000682F70E0611B71093FC0843021F09230E0
:100DB00031F48230B9F18181882389F12DC01196F7
:100DC0001C9111978230F1F081811817D9F4129695
:100DD0002D913C911397828193818217930794F010
:100DE00028173907BCF014968D919D910D90BC91F8
:100DF000A02D2481358146815781281739074A075C
:100E00005B0718F4112341F00AC082179307A40767
:100E1000B50740F4112319F061E070E005C06FEFF1
:100E20007FEF02C060E070E0CB011F910895DF9377
:100E3000CF9300D0CDB7DEB79A838983E0E4F0E0AA
:100E400089819A81892F99278083E9E2F0E089815D
:100E50008083EAE2F0E088E98083E0E4F0E08EE875
:100E6000808378940F900F90CF91DF910895DF9356
:100E7000CF93CDB7DEB76C970FB6F894DEBF0FBE39
:100E8000CDBF8B8F1A8E198ED0C01C8E898D9A8DF6
:100E900027E28131920710F081E08C8F898D9A8D45
:100EA00001969A8F898F2C8D222309F0CCC080E087
:100EB00090E0A0E2B1E48D8B9E8BAF8BB88F6D89F3
:100EC0007E898F89988D2BEA3AEA4AE250E40E94A3
:100ED0001F02DC01CB01898B9A8BAB8BBC8B6989A0
:100EE0007A898B899C8920E030E040E85FE30E94AA
:100EF000250488231CF481E0888B91C069897A8954
:100F00008B899C8920E030E04FE753E40E94C503C1
:100F100018160CF07BC06D897E898F89988D20E032
:100F200030E04AE754E40E941903DC01CB018C87CE
:100F30009D87AE87BF876C857D858E859F8520E0E8
:100F400030E04AEF54E40E941F02DC01CB018887A5
:100F50009987AA87BB87688579858A859B8520E0E4
:100F600030E040E85FE30E94250488232CF481E010
:100F700090E09F838E833FC0688579858A859B85B5
:100F800020E03FEF4FE757E40E94C50318164CF5E9
:100F90006C857D858E859F8520E030E040E251E4C0
:100FA0000E941F02DC01CB01BC01CD010E9449005F
:100FB000DC01CB019F838E830FC088EC90E09D8382
:100FC0008C838C819D810197F1F79D838C838E8129
:100FD0009F8101979F838E838E819F81009769F700
:100FE00024C0688579858A859B850E944900DC013B
:100FF000CB019F838E838E819F819B838A838A818D
:101000009B810197F1F79B838A830FC069897A8955
:101010008B899C890E944900DC01CB01888B8889DF
:10102000898389818A95F1F78983EBE2F0E08081F9
:10103000882F90E080729070009709F426CFECE240
:10104000F0E08B8D80836C960FB6F894DEBF0FBEF8
:10105000CDBFCF91DF910895DF93CF93CDB7DEB7AA
:1010600060970FB6F894DEBF0FBECDBF988B8F8709
:101070008F85988927E0813D920720F080ED97E0E9
:10108000988B8F87A8E3B0E0E8E3F0E0808181608F
:101090008C938F859889CC01A0E0B0E0BC01CD0194
:1010A0000E94A904DC01CB018B879C87AD87BE879A
:1010B0006B857C858D859E8520E030E04AEF54E489
:1010C0000E941F02DC01CB018F839887A987BA8712
:1010D0006F81788589859A8520E030E040E85FE37C
:1010E0000E94250488232CF481E090E09E838D8368
:1010F0003FC06F81788589859A8520E03FEF4FE773
:1011000057E40E94C50318164CF56B857C858D85C8
:101110009E8520E030E040E251E40E941F02DC01A5
:10112000CB01BC01CD010E944900DC01CB019E83B3
:101130008D830FC088EC90E09C838B838B819C8196
:101140000197F1F79C838B838D819E8101979E830C
:101150008D838D819E81009769F714C06F8178859A
:1011600089859A850E944900DC01CB019E838D838D
:101170008D819E819A83898389819A810197F1F774
:101180009A838983A8E3B0E0E8E3F0E080818E7F72
:101190008C9360960FB6F894DEBF0FBECDBFCF9193
:1011A000DF9108950F931F93DF93CF93CDB7DEB7F1
:1011B000C05CD0400FB6F894DEBF0FBECDBFCE01ED
:1011C00085549F4F25E0FC01DF01822F1D928A95F7
:1011D000E9F7A1E3B0E0E1E3F0E0808184608C9383
:1011E000A2E3B0E0E2E3F0E080818B7F8C93FE012C
:1011F000ED54FF4F80E090E0A0EAB1E4808391835A
:10120000A283B3838E0101551F4FFE01ED54FF4FA2
:10121000608171818281938120E030E04AEF54E463
:101220000E941F02DC01CB01F80180839183A2831D
:10123000B383FE01E155FF4F60817181828193810B
:1012400020E030E040E85FE30E942504882344F476
:10125000FE01E355FF4F81E090E09183808364C0FD
:10126000FE01E155FF4F608171818281938120E011
:101270003FEF4FE757E40E94C50318160CF043C038
:10128000FE01ED54FF4F608171818281938120E0E6
:1012900030E040E251E40E941F02DC01CB018E01EC
:1012A00003551F4FBC01CD010E944900DC01CB0159
:1012B000F801918380831FC0FE01E555FF4F88EC44
:1012C00090E091838083FE01E555FF4F80819181FD
:1012D0000197F1F7FE01E555FF4F91838083DE0111
:1012E000A355BF4FFE01E355FF4F808191810197C8
:1012F00011969C938E93FE01E355FF4F808191815F
:101300000097D1F627C08E0103551F4FFE01E1550E
:10131000FF4F60817181828193810E944900DC01CD
:10132000CB01F80191838083DE01A755BF4FFE01F9
:10133000E355FF4F808191818D939C93FE01E7558A
:10134000FF4F808191810197F1F7FE01E755FF4F33
:1013500091838083A2E3B0E0E2E3F0E080818460E7
:101360008C93FE01EB55FF4F80E090E0A0EFB1E4DD
:1013700080839183A283B3838E010F551F4FFE019B
:10138000EB55FF4F60817181828193812BEA3AEAAC
:101390004AE250E40E941F02DC01CB01F801808385
:1013A0009183A283B383FE01EF55FF4F608171816A
:1013B0008281938120E030E040E85FE30E942504D1
:1013C000882334F4FE01E056FF4F81E08083E0C0C3
:1013D000FE01EF55FF4F608171818281938120E092
:1013E00030E04FE753E40E94C50318160CF0C0C06C
:1013F000FE01EB55FF4F608171818281938120E076
:1014000030E04AE754E40E941903DC01CB01FE01FD
:10141000E456FF4F80839183A283B3838E010856E5
:101420001F4FFE01E456FF4F6081718182819381DD
:1014300020E030E04AEF54E40E941F02DC01CB01BF
:10144000F80180839183A283B383FE01E856FF4FA6
:10145000608171818281938120E030E040E85FE328
:101460000E942504882344F4FE01EA56FF4F81E0E0
:1014700090E09183808364C0FE01E856FF4F608155
:1014800071818281938120E03FEF4FE757E40E9412
:10149000C50318160CF043C0FE01E456FF4F6081EF
:1014A00071818281938120E030E040E251E40E942A
:1014B0001F02DC01CB018E010A561F4FBC01CD017A
:1014C0000E944900DC01CB01F801918380831FC099
:1014D000FE01EC56FF4F88EC90E091838083FE0183
:1014E000EC56FF4F808191810197F1F7FE01EC5698
:1014F000FF4F91838083DE01AA56BF4FFE01EA565B
:10150000FF4F80819181019711969C938E93FE01EC
:10151000EA56FF4F808191810097D1F64BC08E0132
:101520000A561F4FFE01E856FF4F6081718182818C
:1015300093810E944900DC01CB01F80191838083F3
:10154000DE01AE56BF4FFE01EA56FF4F808191810A
:1015500011969C938E93FE01EE56FF4F80819181F0
:101560000197F1F7FE01EE56FF4F9183808322C071
:101570008E0100561F4FFE01EF55FF4F60817181B4
:10158000828193810E944900DC01CB01F8018083B4
:10159000DE01AF56BF4FFE01E056FF4F80818C93B6
:1015A000FE01EF56FF4F80818A95F1F7FE01EF565D
:1015B000FF4F8083A1E3B0E0E1E3F0E080818B7F27
:1015C0008C93A2E3B0E0E2E3F0E0808184608C934E
:1015D000FE01E357FF4F80E090E0A0E2B2E4808399
:1015E0009183A283B3838E0107571F4FFE01E357F8
:1015F000FF4F60817181828193812BEA3AEA4AE24E
:1016000050E40E941F02DC01CB01F801808391832A
:10161000A283B383FE01E757FF4F6081718182810E
:10162000938120E030E040E85FE30E9425048823B6
:1016300034F4FE01E857FF4F81E08083E0C0FE01F3
:10164000E757FF4F608171818281938120E030E014
:101650004FE753E40E94C50318160CF0C0C0FE010A
:10166000E357FF4F608171818281938120E030E0F8
:101670004AE754E40E941903DC01CB01FE01EC5758
:10168000FF4F80839183A283B3838E0100581F4F45
:10169000FE01EC57FF4F608171818281938120E0D0
:1016A00030E04AEF54E40E941F02DC01CB01F80154
:1016B00080839183A283B383FE01E058FF4F608152
:1016C00071818281938120E030E040E85FE30E94F5
:1016D0002504882344F4FE01E258FF4F81E090E0A6
:1016E0009183808364C0FE01E058FF4F6081718167
:1016F0008281938120E03FEF4FE757E40E94C503CA
:1017000018160CF043C0FE01EC57FF4F6081718149
:101710008281938120E030E040E251E40E941F0288
:10172000DC01CB018E0102581F4FBC01CD010E948C
:101730004900DC01CB01F801918380831FC0FE01C9
:10174000E458FF4F88EC90E091838083FE01E458D9
:10175000FF4F808191810197F1F7FE01E458FF4F1F
:1017600091838083DE01A258BF4FFE01E258FF4FF4
:1017700080819181019711969C938E93FE01E2588E
:10178000FF4F808191810097D1F64BC08E010258A6
:101790001F4FFE01E058FF4F60817181828193816C
:1017A0000E944900DC01CB01F80191838083DE01B6
:1017B000A658BF4FFE01E258FF4F808191811196DC
:1017C0009C938E93FE01E658FF4F80819181019793
:1017D000F1F7FE01E658FF4F9183808322C08E010E
:1017E00008571F4FFE01E757FF4F608171818281CB
:1017F00093810E944900DC01CB01F8018083DE0166
:10180000A758BF4FFE01E857FF4F80818C93FE0120
:10181000E758FF4F80818A95F1F7FE01E758FF4FA7
:101820008083FE01E954FF4F88EE93E0918380832B
:1018300029C1FE01EB58FF4F80E090E0A0E8BFE334
:1018400080839183A283B3838E010F581F4FFE01C3
:10185000EB58FF4F60817181828193812BEA3AEAD4
:101860004AE250E40E941F02DC01CB01F8018083B0
:101870009183A283B383FE01EF58FF4F6081718192
:101880008281938120E030E040E85FE30E942504FC
:10189000882334F4FE01E059FF4F81E08083E0C0EB
:1018A000FE01EF58FF4F608171818281938120E0BA
:1018B00030E04FE753E40E94C50318160CF0C0C097
:1018C000FE01EB58FF4F608171818281938120E09E
:1018D00030E04AE754E40E941903DC01CB01FE0129
:1018E000E459FF4F80839183A283B3838E0108590B
:1018F0001F4FFE01E459FF4F608171818281938106
:1019000020E030E04AEF54E40E941F02DC01CB01EA
:10191000F80180839183A283B383FE01E859FF4FCE
:10192000608171818281938120E030E040E85FE353
:101930000E942504882344F4FE01EA59FF4F81E008
:1019400090E09183808364C0FE01E859FF4F60817D
:1019500071818281938120E03FEF4FE757E40E943D
:10196000C50318160CF043C0FE01E459FF4F608117
:1019700071818281938120E030E040E251E40E9455
:101980001F02DC01CB018E010A591F4FBC01CD01A2
:101990000E944900DC01CB01F801918380831FC0C4
:1019A000FE01EC59FF4F88EC90E091838083FE01AB
:1019B000EC59FF4F808191810197F1F7FE01EC59BD
:1019C000FF4F91838083DE01AA59BF4FFE01EA5980
:1019D000FF4F80819181019711969C938E93FE0118
:1019E000EA59FF4F808191810097D1F64BC08E015B
:1019F0000A591F4FFE01E859FF4F608171818281B2
:101A000093810E944900DC01CB01F801918380831E
:101A1000DE01AE59BF4FFE01EA59FF4F808191812F
:101A200011969C938E93FE01EE59FF4F8081918118
:101A30000197F1F7FE01EE59FF4F9183808322C099
:101A40008E0100591F4FFE01EF58FF4F60817181D9
:101A5000828193810E944900DC01CB01F8018083DF
:101A6000DE01AF59BF4FFE01E059FF4F80818C93DB
:101A7000FE01EF59FF4F80818A95F1F7FE01EF5982
:101A8000FF4F8083E0E3F0E08081882F90E0847056
:101A900090700097A1F0DE01A954BF4FFE01E954F8
:101AA000FF4F80819181019711969C938E93FE0147
:101AB000E954FF4F80819181009709F0BACEFE0171
:101AC000E954FF4F80819181009731F4C054DF4F7A
:101AD0001882C05CD040C4C4FE01E954FF4F88EEB8
:101AE00093E09183808329C1FE01E35AFF4F80E098
:101AF00090E0A0E8BFE380839183A283B3838E014B
:101B0000075A1F4FFE01E35AFF4F608171818281A6
:101B100093812BEA3AEA4AE250E40E941F02DC0178
:101B2000CB01F80180839183A283B383FE01E75A3E
:101B3000FF4F608171818281938120E030E040E835
:101B40005FE30E942504882334F4FE01E85AFF4F26
:101B500081E08083E0C0FE01E75AFF4F6081718120
:101B60008281938120E030E04FE753E40E94C50377
:101B700018160CF0C0C0FE01E35AFF4F608171815E
:101B80008281938120E030E04AE754E40E94190307
:101B9000DC01CB01FE01EC5AFF4F80839183A283CD
:101BA000B3838E01005B1F4FFE01EC5AFF4F608133
:101BB00071818281938120E030E04AEF54E40E94F9
:101BC0001F02DC01CB01F80180839183A283B383E0
:101BD000FE01E05BFF4F608171818281938120E093
:101BE00030E040E85FE30E942504882344F4FE01CE
:101BF000E25BFF4F81E090E09183808364C0FE014F
:101C0000E05BFF4F608171818281938120E03FEF33
:101C10004FE757E40E94C50318160CF043C0FE01BD
:101C2000EC5AFF4F608171818281938120E030E026
:101C300040E251E40E941F02DC01CB018E01025BF5
:101C40001F4FBC01CD010E944900DC01CB01F8010E
:101C5000918380831FC0FE01E45BFF4F88EC90E01E
:101C600091838083FE01E45BFF4F80819181019726
:101C7000F1F7FE01E45BFF4F91838083DE01A25BFD
:101C8000BF4FFE01E25BFF4F80819181019711966A
:101C90009C938E93FE01E25BFF4F808191810097C0
:101CA000D1F64BC08E01025B1F4FFE01E05BFF4F80
:101CB00060817181828193810E944900DC01CB01A6
:101CC000F80191838083DE01A65BBF4FFE01E25BDA
:101CD000FF4F8081918111969C938E93FE01E65B6C
:101CE000FF4F808191810197F1F7FE01E65BFF4F85
:101CF0009183808322C08E01085A1F4FFE01E75A4C
:101D0000FF4F60817181828193810E944900DC01D3
:101D1000CB01F8018083DE01A75BBF4FFE01E85ACB
:101D2000FF4F80818C93FE01E75BFF4F80818A9596
:101D3000F1F7FE01E75BFF4F8083E0E3F0E0808195
:101D4000882F90E0847090700097A1F4DE01A95470
:101D5000BF4FFE01E954FF4F808191810197119699
:101D60009C938E93FE01E954FF4F808191810097EF
:101D700009F0BACEFE01E954FF4F808191810097AE
:101D800031F4C054DF4F1882C05CD04069C3FE01FB
:101D9000E754FF4F108215C3FE01E654FF4F108237
:101DA00000C3FE01E954FF4F88EE93E091838083E6
:101DB000DDC0FE01EB5BFF4F80E090E0A0E8BFE3F9
:101DC00080839183A283B3838E010F5B1F4FFE013B
:101DD000EB5BFF4F60817181828193812BEA3AEA4C
:101DE0004AE250E40E941F02DC01CB01F80180832B
:101DF0009183A283B383FE01EF5BFF4F608171810A
:101E00008281938120E030E040E85FE30E94250476
:101E1000882334F481E0FE01E05CFF4F80839DC0A5
:101E2000FE01EF5BFF4F608171818281938120E031
:101E300030E04FE753E40E94C50318160CF07EC053
:101E4000FE01EB5BFF4F608171818281938120E015
:101E500030E04AE754E40E941903DC01CB018CAF67
:101E60009DAFAEAFBFAF6CAD7DAD8EAD9FAD20E091
:101E700030E04AEF54E40E941F02DC01CB0188AF3E
:101E800099AFAAAFBBAF68AD79AD8AAD9BAD20E08D
:101E900030E040E85FE30E94250488232CF481E0D1
:101EA00090E09FAB8EAB3FC068AD79AD8AAD9BAD86
:101EB00020E03FEF4FE757E40E94C50318164CF5AA
:101EC0006CAD7DAD8EAD9FAD20E030E040E251E4E1
:101ED0000E941F02DC01CB01BC01CD010E94490020
:101EE000DC01CB019FAB8EAB0FC088EC90E09DABCB
:101EF0008CAB8CA99DA90197F1F79DAB8CAB8EA9FA
:101F00009FA901979FAB8EAB8EA99FA9009769F7F8
:101F10002DC068AD79AD8AAD9BAD0E944900DC0152
:101F2000CB019FAB8EAB8EA99FA99BAB8AAB8AA935
:101F30009BA90197F1F79BAB8AAB18C0FE01EF5B41
:101F4000FF4F60817181828193810E944900DC0191
:101F5000CB01FE01E05CFF4F8083FE01E05CFF4FA0
:101F6000808189AB89A98A95F1F789ABE0E3F0E03C
:101F70008081882F90E0847090700097A1F4DE013A
:101F8000A954BF4FFE01E954FF4F80819181019711
:101F900011969C938E93FE01E954FF4F80819181AD
:101FA000009709F006CFFE01E954FF4F808191812F
:101FB000009731F4C054DF4F1882C05CD04050C24B
:101FC00080E090E0ACE0B2E48DA79EA7AFA7B8ABED
:101FD0006DA57EA58FA598A92BEA3AEA4AE250E4BE
:101FE0000E941F02DC01CB0189A79AA7ABA7BCA75F
:101FF00069A57AA58BA59CA520E030E040E85FE3C9
:102000000E94250488231CF481E088A791C069A55B
:102010007AA58BA59CA520E030E04FE753E40E9411
:10202000C50318160CF07BC06DA57EA58FA598A9D9
:1020300020E030E04AE754E40E941903DC01CB01C0
:102040008CA39DA3AEA3BFA36CA17DA18EA19FA1D4
:1020500020E030E04AEF54E40E941F02DC01CB0193
:1020600088A399A3AAA3BBA368A179A18AA19BA1D4
:1020700020E030E040E85FE30E94250488232CF450
:1020800081E090E09F8F8E8F3FC068A179A18AA1E7
:102090009BA120E03FEF4FE757E40E94C5031816CD
:1020A0004CF56CA17DA18EA19FA120E030E040E223
:1020B00051E40E941F02DC01CB01BC01CD010E9452
:1020C0004900DC01CB019F8F8E8F0FC088EC90E020
:1020D0009D8F8C8F8C8D9D8D0197F1F79D8F8C8FAF
:1020E0008E8D9F8D01979F8F8E8F8E8D9F8D0097E8
:1020F00069F724C068A179A18AA19BA10E94490027
:10210000DC01CB019F8F8E8F8E8D9F8D9B8F8A8F51
:102110008A8D9B8D0197F1F79B8F8A8F0FC069A5E0
:102120007AA58BA59CA50E944900DC01CB0188A75C
:1021300088A5898F898D8A95F1F7898FE0E3F0E092
:102140008081882F90E084709070009709F420C1FE
:10215000FE01E754FF4F8081482F50E0FE01E75415
:10216000FF4F8081282F30E0CE0185549F4FFC0126
:10217000E20FF31F8081682FFE01E654FF4F80813C
:10218000282F30E087E090E0DC01A21BB30B9D011B
:1021900081E090E002C0880F991F2A95E2F7862B14
:1021A000282FCE0185549F4FFC01E40FF51F20839B
:1021B000FE01E954FF4F88EE93E091838083BEC017
:1021C00080E090E0A0E8BFE38D8B9E8BAF8BB88F53
:1021D0006D897E898F89988D2BEA3AEA4AE250E42C
:1021E0000E941F02DC01CB01898B9A8BAB8BBC8BCD
:1021F00069897A898B899C8920E030E040E85FE337
:102200000E94250488231CF481E0888B91C0698991
:102210007A898B899C8920E030E04FE753E40E9463
:10222000C50318160CF07BC06D897E898F89988D47
:1022300020E030E04AE754E40E941903DC01CB01BE
:102240008C879D87AE87BF876C857D858E859F85B2
:1022500020E030E04AEF54E40E941F02DC01CB0191
:1022600088879987AA87BB87688579858A859B85B2
:1022700020E030E040E85FE30E94250488232CF44E
:1022800081E090E09F838E833FC0688579858A8551
:102290009B8520E03FEF4FE757E40E94C5031816E7
:1022A0004CF56C857D858E859F8520E030E040E291
:1022B00051E40E941F02DC01CB01BC01CD010E9450
:1022C0004900DC01CB019F838E830FC088EC90E036
:1022D0009D838C838C819D810197F1F79D838C83F5
:1022E0008E819F8101979F838E838E819F8100972E
:1022F00069F724C0688579858A859B850E94490095
:10230000DC01CB019F838E838E819F819B838A8397
:102310008A819B810197F1F79B838A830FC069892A
:102320007A898B899C890E944900DC01CB01888BCA
:102330008889898389818A95F1F78983E0E3F0E0D0
:102340008081882F90E0847090700097A1F0DE016A
:10235000A954BF4FFE01E954FF4F8081918101973D
:1023600011969C938E93FE01E954FF4F80819181D9
:10237000009709F025CFFE01E954FF4F808191813C
:10238000009731F4C054DF4F1882C05CD04068C061
:10239000DE01A654BF4FFE01E654FF4F80818F5FE0
:1023A0008C93FE01E654FF4F8081883008F4F9CC0D
:1023B000DE01A754BF4FFE01E754FF4F80818F5FBE
:1023C0008C93FE01E754FF4F8081853008F4E4CC04
:1023D000FE01E554FF4F8481482F50E0FE01E55493
:1023E000FF4F8081282F30E0FE01E554FF4F8181AF
:1023F000882F90E0280F391FFE01E554FF4F82819E
:10240000882F90E0280F391FFE01E554FF4F83818C
:10241000882F90E0820F931F90704817590731F072
:10242000C054DF4F1882C05CD0401AC0FE01E55492
:10243000FF4F8081882F90E0909374018093730107
:10244000FE01E554FF4F8281882F90E09093720146
:1024500080937101B1E0C054DF4FB883C05CD040BD
:10246000C054DF4F8881C05CD040C054DF4F0FB6EE
:10247000F894DEBF0FBECDBFCF91DF911F910F91BA
:102480000895DF93CF93CDB7DEB7A7E3B0E0E7E3DE
:10249000F0E0808188678C93A8E3B0E0E8E3F0E0A7
:1024A000808187788C93A1E3B0E0E1E3F0E0808164
:1024B00084608C93A2E3B0E0E2E3F0E0808184608A
:1024C0008C93A7E3B0E0E7E3F0E0808183608C9336
:1024D000EFE4F0E082E88083EEE4F0E08AE18083DC
:1024E000E6E4F0E08FE19EE491838083EAE4F0E0AB
:1024F0008CED95E091838083A4E3B0E0E4E3F0E029
:10250000808187608C93A1E3B0E0E1E3F0E080811B
:1025100088638C93A4E3B0E0E4E3F0E08081806C16
:102520008C93AAE3B0E0EAE3F0E080818C618C93C5
:10253000AAE3B0E0EAE3F0E08081806E8C93109231
:102540007001A5E3B0E0E5E3F0E0808180648C9366
:10255000A5E3B0E0E5E3F0E080818F778C9388EC31
:1025600090E00E942C08CF91DF910895DF93CF93E4
:10257000CDB7DEB760970FB6F894DEBF0FBECDBF04
:10258000988B8F878F85988923E0883E920720F467
:1025900088EE93E0988B8F878F85988927E0813D1F
:1025A000920720F080ED97E0988B8F87EAE4F0E0C7
:1025B0008F8598899183808380E090E0A0E7B1E4E3
:1025C0008B879C87AD87BE876B857C858D859E8537
:1025D00020E030E04AEF54E40E941F02DC01CB010E
:1025E0008F839887A987BA876F81788589859A852F
:1025F00020E030E040E85FE30E94250488232CF4CB
:1026000081E090E09E838D833FC06F8178858985CE
:102610009A8520E03FEF4FE757E40E94C503181664
:102620004CF56B857C858D859E8520E030E040E211
:1026300051E40E941F02DC01CB01BC01CD010E94CC
:102640004900DC01CB019E838D830FC088EC90E0B4
:102650009C838B838B819C810197F1F79C838B8377
:102660008D819E8101979E838D838D819E810097B0
:1026700069F714C06F81788589859A850E94490021
:10268000DC01CB019E838D838D819E819A8389831A
:1026900089819A810197F1F79A83898382E390E097
:1026A0000E942C0860960FB6F894DEBF0FBECDBF17
:1026B000CF91DF910895DF93CF9300D000D000D069
:1026C000CDB7DEB789836A838981882339F5A5E38D
:1026D000B0E0E5E3F0E08081887F8C938A81282F49
:1026E00030E03E832D838D819E818133910531F0D1
:1026F0002D813E812233310549F036C0A5E3B0E09B
:10270000E5E3F0E0808185608C932EC0A5E3B0E026
:10271000E5E3F0E0808186608C9326C0ABE3B0E017
:10272000EBE3F0E08081837E8C938A81282F30E078
:102730003C832B838B819C818133910531F02B81EC
:102740003C812233310549F00FC0ABE3B0E0EBE34D
:10275000F0E0808184618C9307C0ABE3B0E0EBE3F1
:10276000F0E0808188618C9384E690E00E942C08E0
:1027700026960FB6F894DEBF0FBECDBFCF91DF9186
:102780000895DF93CF93CDB7DEB727970FB6F894B0
:10279000DEBF0FBECDBF8A836B838A818823C9F5D4
:1027A000E2E3F0E08081877C89838B81282F30E011
:1027B0003F832E838E819F8187349105D1F02E81B6
:1027C0003F812834310534F48E819F818234910514
:1027D000A1F01AC02E813F812235310531F08E8162
:1027E0009F818735910569F00FC089818860898351
:1027F0000BC089818061898307C089818062898358
:1028000003C0898188638983E2E3F0E08981808362
:1028100046C0ABE3B0E0EBE3F0E080818F718C93D6
:102820008B81282F30E03D832C838C819D818734E0
:102830009105F1F02C813D812834310534F48C81EF
:102840009D8182349105E1F02AC02C813D812235A1
:10285000310531F08C819D8187359105C9F01FC00C
:10286000ABE3B0E0EBE3F0E0808180628C9317C0D3
:10287000ABE3B0E0EBE3F0E0808180648C930FC0C9
:10288000ABE3B0E0EBE3F0E0808180688C9307C0BD
:10289000ABE3B0E0EBE3F0E08081806E8C9382E309
:1028A00090E00E942C0827960FB6F894DEBF0FBE6A
:1028B000CDBFCF91DF910895DF93CF93CDB7DEB732
:1028C00060970FB6F894DEBF0FBECDBF8F878F85A0
:1028D000882369F080917601882F90E0019628E0A6
:1028E00030E0B9010E945B18809376010FC080919F
:1028F0007601882331F080917601982F9150988B42
:1029000002C087E0888B988990937601A8E3B0E0B5
:10291000E8E3F0E08081282F277880917601882FE6
:1029200090E0FC01E859FE4F8081822B8C9380E07F
:1029300090E0A0EAB0E48B879C87AD87BE876B856B
:102940007C858D859E8520E030E04AEF54E40E942E
:102950001F02DC01CB018F839887A987BA876F811B
:10296000788589859A8520E030E040E85FE30E9421
:10297000250488232CF481E090E09E838D833FC062
:102980006F81788589859A8520E03FEF4FE757E48E
:102990000E94C50318164CF56B857C858D859E8538
:1029A00020E030E040E251E40E941F02DC01CB0154
:1029B000BC01CD010E944900DC01CB019E838D83C7
:1029C0000FC088EC90E09C838B838B819C81019766
:1029D000F1F79C838B838D819E8101979E838D83EC
:1029E0008D819E81009769F714C06F8178858985F4
:1029F0009A850E944900DC01CB019E838D838D81E5
:102A00009E819A83898389819A810197F1F79A83BC
:102A1000898360960FB6F894DEBF0FBECDBFCF910D
:102A2000DF910895DF93CF93CDB7DEB763970FB6ED
:102A3000F894DEBF0FBECDBF8A8B909170018A895A
:102A4000981709F4BCC0A5E3B0E0E5E3F0E08081AD
:102A50008F738C938CE291E00E942C0880E092E0CE
:102A6000998B888B1F868A89813009F078C081E034
:102A70008F8775C08F850E945C1480E090E0A0E293
:102A8000B1E48B879C87AD87BE876B857C858D8500
:102A90009E8520E030E04AEF54E40E941F02DC01F2
:102AA000CB018F839887A987BA876F8178858985BD
:102AB0009A8520E030E040E85FE30E942504882307
:102AC0002CF481E090E09E838D833FC06F817885F8
:102AD00089859A8520E03FEF4FE757E40E94C503C0
:102AE00018164CF56B857C858D859E8520E030E041
:102AF00040E251E40E941F02DC01CB01BC01CD0188
:102B00000E944900DC01CB019E838D830FC088ECBD
:102B100090E09C838B838B819C810197F1F79C8350
:102B20008B838D819E8101979E838D838D819E8174
:102B3000009769F714C06F81788589859A850E940E
:102B40004900DC01CB019E838D838D819E819A8318
:102B5000898389819A810197F1F79A8389831B8AF6
:102B600088899989009711F081E08B8B88899989F0
:102B70000197998B888B8B89882309F07BCF8A8971
:102B8000809370018A89813041F4A5E3B0E0E5E3E8
:102B9000F0E0808180688C9307C0A5E3B0E0E5E3B6
:102BA000F0E0808180648C93A8E3B0E0E8E3F0E09B
:102BB000808187788C9388EC90E00E942C08639643
:102BC0000FB6F894DEBF0FBECDBFCF91DF91089551
:102BD0001F920F920FB60F9211242F933F934F9392
:102BE0005F936F937F938F939F93AF93BF93EF9375
:102BF000FF93DF93CF93CDB7DEB76E97DEBFCDBF28
:102C000030917501832F90E0ECE2F0E02081FC012F
:102C1000E958FE4F2083832F8F5F80937501809149
:102C20007501833009F0AEC180917701282F30E023
:102C30003E8F2D8F8D8D9E8D8634910509F45FC05A
:102C40002D8D3E8D2734310564F48D8D9E8D843419
:102C5000910599F02D8D3E8D2534310509F47EC006
:102C60008FC18D8D9E8D87349105D1F02D8D3E8D38
:102C70002335310509F483C083C1809178018F34F5
:102C800029F48CED95E00E94B6127AC1809178010A
:102C9000833409F075C188EE93E00E94B61270C1CA
:102CA00080917801863439F49091790180E0692F20
:102CB0000E945B1365C1809178018C3439F4909146
:102CC000790180E0692F0E94C1135AC18091780177
:102CD000893409F055C1A5E3B0E0E5E3F0E0808177
:102CE0008F738C9380917901813309F049C1A5E3F9
:102CF000B0E0E5E3F0E0808180648C9341C1809195
:102D00007801863439F49091790181E0692F0E942D
:102D10005B1336C1809178018C3439F4909179013C
:102D200081E0692F0E94C1132BC180917801893401
:102D300009F026C1A5E3B0E0E5E3F0E080818F7300
:102D40008C9380917901813309F01AC1A5E3B0E039
:102D5000E5E3F0E0808180688C9312C18091780176
:102D6000853521F481E00E9412150AC18091780115
:102D7000843409F005C180E00E94121501C18091E0
:102D80007801823509F0FCC00E94D208882309F43A
:102D90007FC080917101909172010E94370780E09D
:102DA00090E0A0E2B1E4898F9A8FAB8FBC8F698DE0
:102DB0007A8D8B8D9C8D20E030E04AEF54E40E94A8
:102DC0001F02DC01CB018D8B9E8BAF8BB88F6D8981
:102DD0007E898F89988D20E030E040E85FE30E9493
:102DE000250488232CF481E090E09C8B8B8B3FC0E2
:102DF0006D897E898F89988D20E03FEF4FE757E4FA
:102E00000E94C50318164CF5698D7A8D8B8D9C8DAB
:102E100020E030E040E251E40E941F02DC01CB01DF
:102E2000BC01CD010E944900DC01CB019C8B8B8B46
:102E30000FC088EC90E09A8B898B89899A890197D9
:102E4000F1F79A8B898B8B899C8901979C8B8B8B53
:102E50008B899C89009769F714C06D897E898F8959
:102E6000988D0E944900DC01CB019C8B8B8B8B8958
:102E70009C89988B8F878F8598890197F1F7988B1C
:102E80008F8780917301909174010E94370778C0F9
:102E90008FEF0E94370780E090E0A0E2B1E48B87DB
:102EA0009C87AD87BE876B857C858D859E8520E060
:102EB00030E04AEF54E40E941F02DC01CB018F8313
:102EC0009887A987BA876F81788589859A8520E058
:102ED00030E040E85FE30E94250488232CF481E081
:102EE00090E09E838D833FC06F81788589859A8528
:102EF00020E03FEF4FE757E40E94C50318164CF55A
:102F00006B857C858D859E8520E030E040E251E434
:102F10000E941F02DC01CB01BC01CD010E944900CF
:102F2000DC01CB019E838D830FC088EC90E09C83F5
:102F30008B838B819C810197F1F79C838B838D819F
:102F40009E8101979E838D838D819E81009769F775
:102F500014C06F81788589859A850E944900DC01BB
:102F6000CB019E838D838D819E819A838983898104
:102F70009A810197F1F79A8389838FEF0E9437072F
:102F8000109275016E96DEBFCDBFCF91DF91FF919C
:102F9000EF91BF91AF919F918F917F916F915F91D1
:102FA0004F913F912F910F900FBE0F901F9018954A
:102FB000DF93CF93CDB7DEB72E970FB6F894DEBF71
:102FC0000FBECDBF83E390E00E9417070E9441121D
:102FD00080E090E0A8ECB2E48B879C87AD87BE8749
:102FE0006B857C858D859E8520E030E04AEF54E43A
:102FF0000E941F02DC01CB018F839887A987BA87C3
:103000006F81788589859A8520E030E040E85FE32C
:103010000E94250488232CF481E090E09E838D8318
:103020003FC06F81788589859A8520E03FEF4FE723
:1030300057E40E94C50318164CF56B857C858D8579
:103040009E8520E030E040E251E40E941F02DC0156
:10305000CB01BC01CD010E944900DC01CB019E8364
:103060008D830FC088EC90E09C838B838B819C8147
:103070000197F1F79C838B838D819E8101979E83BD
:103080008D838D819E81009769F7A2CF6F817885AE
:1030900089859A850E944900DC01CB019E838D833E
:1030A0008D819E819A83898389819A810197F1F725
:1030B0009A8389838DCF97FB092E07260AD077FD47
:1030C00004D00CD006D000201AF4709561957F4F83
:1030D0000895F6F7909581959F4F0895AA1BBB1B05
:1030E00051E107C0AA1FBB1FA617B70710F0A61B08
:1030F000B70B881F991F5A95A9F780959095BC0129
:10310000CD0108952F923F924F925F926F927F92DE
:103110008F929F92AF92BF92CF92DF92EF92FF92E7
:103120000F931F93CF93DF93CDB7DEB7CA1BDB0B93
:103130000FB6F894DEBF0FBECDBF09942A88398838
:1031400048885F846E847D848C849B84AA84B9843F
:10315000C884DF80EE80FD800C811B81AA81B9814B
:10316000CE0FD11D0FB6F894DEBF0FBECDBFED015F
:063170000895F894FFCF62
:103176000000000000000000000102020303030338
:1031860004040404040404040505050505050505F1
:1031960005050505050505050606060606060606D1
:1031A60006060606060606060606060606060606B9
:1031B60006060606060606060707070707070707A1
:1031C6000707070707070707070707070707070789
:1031D6000707070707070707070707070707070779
:1031E6000707070707070707070707070707070769
:1031F6000707070707070707080808080808080851
:103206000808080808080808080808080808080838
:103216000808080808080808080808080808080828
:103226000808080808080808080808080808080818
:103236000808080808080808080808080808080808
:1032460008080808080808080808080808080808F8
:1032560008080808080808080808080808080808E8
:1032660008080808080808080808080808080808D8
:1032760008080808080808080818103020604048A0
:00000001FF
