:100000000C942A000C9447000C9447000C94470071
:100010000C9447000C9447000C9447000C94470044
:100020000C9447000C9447000C9447000C94470034
:100030000C9447000C9447000C9447000C94470024
:100040000C9447000C9447000C9447000C94470014
:100050000C94470011241FBECFE5D8E0DEBFCDBF12
:1000600014E0A0E6B0E0EAE3FCE502C005900D92E2
:10007000A834B107D9F714E0A8E4B4E001C01D9298
:10008000A435B107E1F70E9442240C941B2E0C9476
:100090000000EF92FF920F931F937B018C0120E0F1
:1000A00030E040E05FE40E94F50388238CF0C80153
:1000B000B70120E030E040E05FE40E94C1010E940F
:1000C00055049B01AC01205030404040504806C0D0
:1000D000C801B7010E9455049B01AC01B901CA01D6
:1000E0001F910F91FF90EF900895A0E0B0E0EBE733
:1000F000F0E00C94042BDC012B01FA019C9192306E
:1001000008F439C1EB018881823008F433C194309E
:1001100069F4843009F02FC111969C91119789815F
:10012000981709F428C1AFE2B3E025C1843009F47F
:1001300021C18230A9F4923009F01DC19A01AD01AC
:1001400088E0EA010990AE01E90109929E0181501F
:10015000C1F7E201898111969C918923818308C1AD
:10016000923009F407C112962D903C901397EB0141
:100170008A819B811496AD90BD90CD90DC901797AD
:10018000EC80FD800E811F819101281B390BB90184
:1001900037FF04C066277727621B730B6032710537
:1001A0000CF061C0121613066CF537014801062EDB
:1001B00004C096948794779467940A94D2F721E0C8
:1001C00030E040E050E004C0220F331F441F551FB1
:1001D0006A95D2F721503040404050402E213F21B7
:1001E00040235123211531054105510521F021E01E
:1001F00030E040E050E079018A01E628F72808293C
:1002000019293CC0232BD1F1260E371E350146019A
:10021000062E04C096948794779467940A94D2F734
:1002200021E030E040E050E004C0220F331F441FC3
:10023000551F6A95D2F721503040404050402A2146
:100240003B214C215D21211531054105510521F04E
:1002500021E030E040E050E059016A01A628B728CB
:10026000C828D9280BC0821593052CF01C01AA249C
:10027000BB24650103C0EE24FF24870111969C91E5
:10028000D20111968C91981709F445C0992339F041
:10029000A80197012A193B094C095D0906C0A6016E
:1002A00095012E193F09400B510B57FD08C01182D3
:1002B0003382228224833583468357831DC081E0A5
:1002C00081833382228288279927DC01821B930B4A
:1002D000A40BB50B84839583A683B7830DC0220F2F
:1002E000331F441F551F24833583468357838281E0
:1002F000938101979383828324813581468157813D
:10030000DA01C9010197A109B1098F5F9F4FAF4F72
:10031000BF4328F30BC0918333822282EA0CFB1C7B
:100320000C1D1D1DE482F5820683178383E0808304
:10033000248135814681578157FF1AC0C901AA27F8
:1003400097FDA095BA2F81709070A070B0705695EF
:10035000479537952795822B932BA42BB52B848318
:100360009583A683B7838281938101969383828349
:10037000DF0101C0D201CD01CDB7DEB7E2E10C94BF
:10038000202BA0E2B0E0E7ECF1E00C94102B6983A5
:100390007A838B839C832D833E834F835887E9E048
:1003A000EE2EF12CEC0EFD1ECE010196B7010E943F
:1003B00046068E010F5E1F4FCE010596B8010E94C2
:1003C00046068A8991E089278A8BC701B801AE0168
:1003D000475E5F4F0E9475000E947105A096E6E09F
:1003E0000C942C2BA0E2B0E0E8EFF1E00C94102B81
:1003F00069837A838B839C832D833E834F835887C5
:10040000F9E0EF2EF12CEC0EFD1ECE010196B701A6
:100410000E9446068E010F5E1F4FCE010596B80161
:100420000E944606C701B801AE01475E5F4F0E94B9
:1004300075000E947105A096E6E00C942C2BA0E2BA
:10044000B0E0E5E2F2E00C94042B69837A838B83BD
:100450009C832D833E834F835887CE010196BE0136
:10046000675F7F4F0E944606CE010596BE016F5E14
:100470007F4F0E9446069985923088F089898230A4
:10048000C8F0943019F4823051F404C0843029F457
:10049000923081F48FE293E0C6C0923049F420E0BC
:1004A0009A858A89981321E02A87CE010996BBC0D4
:1004B000823049F420E09A858A89981321E02A8BBA
:1004C000CE014196B0C02D843E844F8458886D88FB
:1004D0007E888F88988CEE24FF248701AA24BB2471
:1004E000650140E050E060E070E0E0E0F0E0C10174
:1004F00081709070892BE9F0E60CF71C081D191D1E
:100500009A01AB012A0D3B1D4C1D5D1D80E090E062
:10051000A0E0B0E0E614F7040805190520F481E036
:1005200090E0A0E0B0E0BA01A901480F591F6A1F8E
:100530007B1FAA0CBB1CCC1CDD1C97FE08C081E0F5
:1005400090E0A0E0B0E0A82AB92ACA2ADB2A3196B6
:10055000E032F10549F0660C771C881C991C569412
:10056000479437942794C3CFFA85EA892B893C892D
:100570008B859C85280F391F2E5F3F4F17C0CA01FE
:1005800081709070892B61F016950795F794E79428
:1005900080E090E0A0E0B0E8E82AF92A0A2B1B2BC3
:1005A00076956795579547952F5F3F4F77FDE7CF36
:1005B0000CC0440F551F661F771F17FD4160EE0CDE
:1005C000FF1C001F111F21503040403090E05907A0
:1005D00090E0690790E4790760F32B8F3C8FDB0193
:1005E000CA018F779070A070B07080349105A1051A
:1005F000B10561F447FD0AC0E114F10401051105DC
:1006000029F0405C5F4F6F4F7F4F40781A8EFE1786
:1006100011F081E08A8F4D8F5E8F6F8F78A383E01A
:10062000898FCE0149960E947105A096E2E10C9453
:10063000202BA8E1B0E0EFE1F3E00C940C2B6983F0
:100640007A838B839C832D833E834F835887B9E0C5
:10065000EB2EF12CEC0EFD1ECE010196B7010E948F
:1006600046068E010F5E1F4FCE010596B8010E940F
:1006700046062985223008F47EC03989323010F4CC
:10068000B8017CC08A859A8989278A87243011F02D
:10069000223031F4231709F06EC06FE273E06EC0B0
:1006A000343039F41D861E861F86188A1C861B86E8
:1006B00004C0323021F484E08987B7015FC02B8504
:1006C0003C858B899C89281B390B3C872B87ED84C3
:1006D000FE840F851889AD88BE88CF88D88CEA142F
:1006E000FB040C051D0540F4EE0CFF1C001F111F40
:1006F000215030403C872B8720E030E040E050E044
:1007000080E090E0A0E0B0E460E070E0EA14FB0478
:100710000C051D0540F0282B392B4A2B5B2BEA18C2
:10072000FB080C091D09B695A79597958795EE0CC2
:10073000FF1C001F111F6F5F7F4F6F31710531F775
:10074000DA01C9018F779070A070B0708034910584
:10075000A105B10561F427FD0AC0E114F10401050A
:10076000110529F0205C3F4F4F4F5F4F20782D87B8
:100770003E874F87588BBE01675F7F4FCB010E943A
:1007800071056896EAE00C94282BA8E1B0E0EBEC48
:10079000F3E00C94102B69837A838B839C832D83E5
:1007A0003E834F83588789E0E82EF12CEC0EFD1E26
:1007B000CE010196B7010E9446068E010F5E1F4FC3
:1007C000CE010596B8010E9446068985823040F028
:1007D0008989823028F0C701B8010E94BE0601C095
:1007E0008FEF6896E6E00C942C2BA8E1B0E0EBEFDD
:1007F000F3E00C94102B69837A838B839C832D8385
:100800003E834F83588789E0E82EF12CEC0EFD1EC5
:10081000CE010196B7010E9446068E010F5E1F4F62
:10082000CE010596B8010E9446068985823040F0C7
:100830008989823028F0C701B8010E94BE0601C034
:100840008FEF6896E6E00C942C2BA8E1B0E0EBE289
:10085000F4E00C94102B69837A838B839C832D8323
:100860003E834F83588789E0E82EF12CEC0EFD1E65
:10087000CE010196B7010E9446068E010F5E1F4F02
:10088000CE010596B8010E9446068985823040F067
:100890008989823028F0C701B8010E94BE0601C0D4
:1008A00081E06896E6E00C942C2BACE0B0E0EBE540
:1008B000F4E00C94142B69837A838B839C83CE01A0
:1008C0000196BE016B5F7F4F0E9446068D8182308C
:1008D00061F1823050F1843021F48E81882351F10E
:1008E0002EC02F81388537FD20C06E812F31310514
:1008F0001CF06623F9F023C08EE190E0821B930B7D
:1009000029853A854B855C8504C056954795379572
:1009100027958A95D2F76623B1F05095409530958A
:1009200021953F4F4F4F5F4F0EC020E030E040E039
:1009300050E009C02FEF3FEF4FEF5FE704C020E02A
:1009400030E040E050E8B901CA012C96E2E00C9496
:10095000302BA8E0B0E0EFEAF4E00C940C2B7B0124
:100960008C01611571058105910519F482E0898377
:1009700060C083E089838EE1C82ED12CDC82CB82DB
:10098000ED82FE820F831887C801B7010E942205FD
:10099000FC013197F7FF3BC0222733272E1B3F0B6B
:1009A00057016801022E04C0D694C794B794A79447
:1009B0000A94D2F740E050E060E070E081E090E01F
:1009C000A0E0B0E004C0880F991FAA1FBB1F2A95A2
:1009D000D2F70197A109B1098E219F21A023B1234C
:1009E0000097A105B10521F041E050E060E070E022
:1009F0004A295B296C297D294D835E836F83788723
:100A00008EE190E08E1B9F0B9C838B8312C03097EE
:100A100081F00E2E04C0EE0CFF1C001F111F0A9463
:100A2000D2F7ED82FE820F831887CE1ADF0ADC82AE
:100A3000CB821A82CE0101960E9471052896EAE0C7
:100A40000C94282BEF92FF920F931F937B018C0144
:100A500080E0E81680E0F80681E0080780E01807EB
:100A600088F48FEFE816F1040105110531F028F044
:100A700088E090E0A0E0B0E017C080E090E0A0E067
:100A8000B0E012C080E0E81680E0F80680E00807D9
:100A900081E0180728F088E190E0A0E0B0E004C011
:100AA00080E190E0A0E0B0E020E230E040E050E003
:100AB000281B390B4A0B5B0B04C016950795F7945E
:100AC000E7948A95D2F7F701E95CFC4F8081281BF7
:100AD000310941095109C9011F910F91FF90EF9010
:100AE0000895DF92EF92FF920F931F93FC01E48031
:100AF000F58006811781D1808081823048F480E0C2
:100B000090E0A0E1B0E0E82AF92A0A2B1B2BA5C04F
:100B1000843009F49FC0823021F4EE24FF24870141
:100B200005C0E114F1040105110519F4E0E0F0E05D
:100B300096C0628173819FEF623879070CF05BC0C9
:100B400022E83FEF261B370B2A3131052CF020E03D
:100B500030E040E050E02AC0B801A701022E04C0F6
:100B600076956795579547950A94D2F781E090E07E
:100B7000A0E0B0E004C0880F991FAA1FBB1F2A95F0
:100B8000D2F70197A109B1098E219F21A023B1239A
:100B90000097A105B10521F081E090E0A0E0B0E070
:100BA0009A01AB01282B392B4A2B5B2BDA01C901A7
:100BB0008F779070A070B07080349105A105B10559
:100BC00039F427FF09C0205C3F4F4F4F5F4F04C0EF
:100BD000215C3F4F4F4F5F4FE0E0F0E02030A0E05E
:100BE0003A07A0E04A07A0E45A0710F0E1E0F0E07D
:100BF00079018A0127C06038710564F5FB01E1586D
:100C0000FF4FD801C7018F779070A070B07080340B
:100C10009105A105B10539F4E7FE0DC080E490E02F
:100C2000A0E0B0E004C08FE390E0A0E0B0E0E80E08
:100C3000F91E0A1F1B1F17FF05C016950795F7948D
:100C4000E794319687E016950795F794E7948A958F
:100C5000D1F705C0EE24FF248701EFEFF0E06E2FFF
:100C6000679566276795902F9F77D794DD24D79453
:100C70008E2F8695492F462B582F5D29B701CA0123
:100C80001F910F91FF90EF90DF900895FC01DB0121
:100C9000408151812281622F6F7770E0221F2227CD
:100CA000221F9381892F880F822B282F30E0991FD4
:100CB0009927991F11969C93119721153105A9F534
:100CC000411551056105710511F482E037C082E8D4
:100CD0009FEF13969C938E9312979A01AB0167E056
:100CE000220F331F441F551F6A95D1F783E08C9361
:100CF0000DC0220F331F441F551F12968D919C91DA
:100D00001397019713969C938E931297203080E04F
:100D1000380780E0480780E4580758F314962D936D
:100D20003D934D935C93179708952F3F310579F4C8
:100D3000411551056105710519F484E08C930895FE
:100D400064FF03C081E08C9312C01C9210C02F5727
:100D5000304013963C932E93129783E08C9387E058
:100D6000440F551F661F771F8A95D1F7706414963C
:100D70004D935D936D937C93179708951F93DC01BA
:100D8000FB019C91923008F447C08081823008F4C6
:100D900043C0943051F411961C91843099F58181AF
:100DA000682F70E0611B71093FC0843021F09230E0
:100DB00031F48230B9F18181882389F12DC01196F7
:100DC0001C9111978230F1F081811817D9F4129695
:100DD0002D913C911397828193818217930794F010
:100DE00028173907BCF014968D919D910D90BC91F8
:100DF000A02D2481358146815781281739074A075C
:100E00005B0718F4112341F00AC082179307A40767
:100E1000B50740F4112319F061E070E005C06FEFF1
:100E20007FEF02C060E070E0CB011F910895DF9377
:100E3000CF93CDB7DEB72F970FB6F894DEBF0FBEB6
:100E4000CDBF20E030E0CE010196B90145E050E091
:100E50000E944A2D89818F3F71F5CE0106969C87AD
:100E60008B87E0E6F0E0FE87ED87F5E0FF87ED8514
:100E7000FE8500808D859E8501969E878D87EB85FA
:100E8000FC8500828B859C8501969C878B879F853E
:100E900091509F87EF85EE2351F7CE01069620E013
:100EA00030E0B90145E050E00E945A2D85E090E025
:100EB00060E00E946A2D2F960FB6F894DEBF0FBE39
:100EC000CDBFCF91DF910895DF93CF93CDB7DEB73C
:100ED000A1E3B0E0E1E3F0E0808180628C93AFE4D5
:100EE000B0E0EFE4F0E0808182688C93AEE4B0E0A3
:100EF000EEE4F0E080818A618C93E6E4F0E08FE13B
:100F00009EE491838083CF91DF910895DF93CF9307
:100F100000D00F92CDB7DEB78B838B81282F30E0C6
:100F200088EE93E0AC01249FC001259F900D349F73
:100F3000900D112424EB30E0B9010E94DD2ACB0191
:100F400088519C4F9A838983EAE4F0E089819A81F1
:100F5000880F991F918380830F900F900F90CF91EE
:100F6000DF910895DF93CF9300D0CDB7DEB79A839A
:100F70008983E0E4F0E089819A81892F9927808331
:100F8000E9E2F0E089818083EAE2F0E088E18083B1
:100F9000E0E4F0E08EE880830F900F90CF91DF9136
:100FA0000895DF93CF930F92CDB7DEB78983EBE23D
:100FB000F0E08081882F90E0807290700097B9F304
:100FC000ECE2F0E0898180830F90CF91DF9108956A
:100FD000DF93CF93CDB7DEB76C970FB6F894DEBF33
:100FE0000FBECDBF1A8E198ED2C01C8E898D9A8DE0
:100FF00027E28131920710F081E08C8F898D9A8DE4
:1010000001969A8F898F2C8D222319F08FEF8B8F69
:10101000C8C080E090E0A0E2B1E48D8B9E8BAF8BE6
:10102000B88F6D897E898F89988D2BEA3AEA4AE2DA
:1010300050E40E941F02DC01CB01898B9A8BAB8BA1
:10104000BC8B69897A898B899C8920E030E040E8F3
:101050005FE30E94250488231CF481E0888B91C003
:1010600069897A898B899C8920E030E04FE753E4D5
:101070000E94C50318160CF07BC06D897E898F898C
:10108000988D20E030E04AE754E40E941903DC0127
:10109000CB018C879D87AE87BF876C857D858E85CC
:1010A0009F8520E030E04AEF54E40E941F02DC01FB
:1010B000CB0188879987AA87BB87688579858A85C8
:1010C0009B8520E030E040E85FE30E942504882310
:1010D0002CF481E090E09F838E833FC06885798502
:1010E0008A859B8520E03FEF4FE757E40E94C503C8
:1010F00018164CF56C857D858E859F8520E030E047
:1011000040E251E40E941F02DC01CB01BC01CD0191
:101110000E944900DC01CB019F838E830FC088ECC5
:1011200090E09D838C838C819D810197F1F79D8355
:101130008C838E819F8101979F838E838E819F8177
:10114000009769F724C0688579858A859B850E9408
:101150004900DC01CB019F838E838E819F819B831D
:101160008A838A819B810197F1F79B838A830FC0D1
:1011700069897A898B899C890E944900DC01CB01AD
:10118000888B8889898389818A95F1F78983EBE245
:10119000F0E0808188230CF028CFECE2F0E02081A1
:1011A0002B8F8B8D6C960FB6F894DEBF0FBECDBF24
:1011B000CF91DF9108950F931F93DF93CF93CDB716
:1011C000DEB7CA54D0400FB6F894DEBF0FBECDBF15
:1011D000FE01E65BFF4F8083A2E3B0E0E2E3F0E0D4
:1011E00080818B7F8C93FE01EB5BFF4F80E090E072
:1011F000A0EDB2E480839183A283B3838E010F5B61
:101200001F4FFE01EB5BFF4F6081718182819381F3
:101210002BEA3AEA4AE250E40E941F02DC01CB01C9
:10122000F80180839183A283B383FE01EF5BFF4FBC
:10123000608171818281938120E030E040E85FE34A
:101240000E942504882334F481E0FE01E05CFF4F16
:1012500080839DC0FE01EF5BFF4F608171818281C1
:10126000938120E030E04FE753E40E94C503181655
:101270000CF07EC0FE01EB5BFF4F608171818281CB
:10128000938120E030E04AE754E40E941903DC0136
:10129000CB018CAF9DAFAEAFBFAF6CAD7DAD8EADB2
:1012A0009FAD20E030E04AEF54E40E941F02DC01D1
:1012B000CB0188AF99AFAAAFBBAF68AD79AD8AADAE
:1012C0009BAD20E030E040E85FE30E9425048823E6
:1012D0002CF481E090E09FAB8EAB3FC068AD79AD60
:1012E0008AAD9BAD20E03FEF4FE757E40E94C50376
:1012F00018164CF56CAD7DAD8EAD9FAD20E030E0A5
:1013000040E251E40E941F02DC01CB01BC01CD018F
:101310000E944900DC01CB019FAB8EAB0FC088EC73
:1013200090E09DAB8CAB8CA99DA90197F1F79DAB8B
:101330008CAB8EA99FA901979FAB8EAB8EA99FA95D
:10134000009769F72DC068AD79AD8AAD9BAD0E945D
:101350004900DC01CB019FAB8EAB8EA99FA99BAB53
:101360008AAB8AA99BA90197F1F79BAB8AAB18C0FE
:10137000FE01EF5BFF4F60817181828193810E944A
:101380004900DC01CB01FE01E05CFF4F8083FE01E0
:10139000E05CFF4F808189AB89A98A95F1F789AB21
:1013A000FE01E75BFF4F1082EDC0FE01E65BFF4FE1
:1013B0008081282F30E0FE01E75BFF4F8081882F7E
:1013C00090E0A90102C0559547958A95E2F7CA01B8
:1013D00081709070882341F0A2E3B0E0E2E3F0E096
:1013E000808184608C9307C0A2E3B0E0E2E3F0E088
:1013F00080818B7F8C9380E090E0A0EDB2E48DA79C
:101400009EA7AFA7B8AB6DA57EA58FA598A92BEA1F
:101410003AEA4AE250E40E941F02DC01CB0189A7AC
:101420009AA7ABA7BCA769A57AA58BA59CA520E028
:1014300030E040E85FE30E94250488231CF481E04B
:1014400088A791C069A57AA58BA59CA520E030E06E
:101450004FE753E40E94C50318160CF07BC06DA53E
:101460007EA58FA598A920E030E04AE754E40E94C9
:101470001903DC01CB018CA39DA3AEA3BFA36CA178
:101480007DA18EA19FA120E030E04AEF54E40E94AC
:101490001F02DC01CB0188A399A3AAA3BBA368A167
:1014A00079A18AA19BA120E030E040E85FE30E949F
:1014B000250488232CF481E090E09F8F8E8F3FC01D
:1014C00068A179A18AA19BA120E03FEF4FE757E4F3
:1014D0000E94C50318164CF56CA17DA18EA19FA199
:1014E00020E030E040E251E40E941F02DC01CB0129
:1014F000BC01CD010E944900DC01CB019F8F8E8F82
:101500000FC088EC90E09D8F8C8F8C8D9D8D019706
:10151000F1F79D8F8C8F8E8D9F8D01979F8F8E8F72
:101520008E8D9F8D009769F724C068A179A18AA14B
:101530009BA10E944900DC01CB019F8F8E8F8E8D75
:101540009F8D9B8F8A8F8A8D9B8D0197F1F79B8F43
:101550008A8F0FC069A57AA58BA59CA50E9449001A
:10156000DC01CB0188A788A5898F898D8A95F1F741
:10157000898FDE01A75BBF4FFE01E75BFF4F8081D4
:101580008F5F8C93FE01E75BFF4F8081883008F40A
:101590000CCFA2E3B0E0E2E3F0E0808184608C93C2
:1015A00080E090E0A0EDB2E48D8B9E8BAF8BB88F86
:1015B0006D897E898F89988D2BEA3AEA4AE250E458
:1015C0000E941F02DC01CB01898B9A8BAB8BBC8BF9
:1015D00069897A898B899C8920E030E040E85FE363
:1015E0000E94250488231CF481E0888B91C06989BE
:1015F0007A898B899C8920E030E04FE753E40E9490
:10160000C50318160CF07BC06D897E898F89988D73
:1016100020E030E04AE754E40E941903DC01CB01EA
:101620008C879D87AE87BF876C857D858E859F85DE
:1016300020E030E04AEF54E40E941F02DC01CB01BD
:1016400088879987AA87BB87688579858A859B85DE
:1016500020E030E040E85FE30E94250488232CF47A
:1016600081E090E09F838E833FC0688579858A857D
:101670009B8520E03FEF4FE757E40E94C503181613
:101680004CF56C857D858E859F8520E030E040E2BD
:1016900051E40E941F02DC01CB01BC01CD010E947C
:1016A0004900DC01CB019F838E830FC088EC90E062
:1016B0009D838C838C819D810197F1F79D838C8321
:1016C0008E819F8101979F838E838E819F8100975A
:1016D00069F724C0688579858A859B850E944900C1
:1016E000DC01CB019F838E838E819F819B838A83C4
:1016F0008A819B810197F1F79B838A830FC0698957
:101700007A898B899C890E944900DC01CB01888BF6
:101710008889898389818A95F1F78983C65BDF4F40
:101720000FB6F894DEBF0FBECDBFCF91DF911F91F2
:101730000F9108950F931F93DF93CF93CDB7DEB72B
:10174000C656D0400FB6F894DEBF0FBECDBFFE0127
:10175000EC59FF4F1082FE01EE59FF4F11821082AB
:101760004FC1A7961FAEA797FE01EE59FF4F80818C
:10177000918127E28131920720F081E0A7968FAF17
:10178000A797DE01AE59BF4FFE01EE59FF4F808192
:101790009181019611969C938E93A796EFADA79792
:1017A000EE2329F0FFEFA696FFAFA697C8C3FE0170
:1017B000E35AFF4F80E090E0A0E2B1E480839183A0
:1017C000A283B3838E01075A1F4FFE01E35AFF4FD6
:1017D00060817181828193812BEA3AEA4AE250E486
:1017E0000E941F02DC01CB01F80180839183A28358
:1017F000B383FE01E75AFF4F60817181828193813B
:1018000020E030E040E85FE30E942504882334F4C0
:10181000FE01E85AFF4F81E08083E0C0FE01E75AF5
:10182000FF4F608171818281938120E030E04FE73A
:1018300053E40E94C50318160CF0C0C0FE01E35A21
:10184000FF4F608171818281938120E030E04AE71F
:1018500054E40E941903DC01CB01FE01EC5AFF4F56
:1018600080839183A283B3838E01005B1F4FFE01AF
:10187000EC5AFF4F608171818281938120E030E0DA
:101880004AEF54E40E941F02DC01CB01F80180837F
:101890009183A283B383FE01E05BFF4F608171817E
:1018A0008281938120E030E040E85FE30E942504DC
:1018B000882344F4FE01E25BFF4F81E090E09183D6
:1018C000808364C0FE01E05BFF4F60817181828193
:1018D000938120E03FEF4FE757E40E94C5031816BD
:1018E0000CF043C0FE01EC5AFF4F60817181828190
:1018F000938120E030E040E251E40E941F02DC01CD
:10190000CB018E01025B1F4FBC01CD010E9449003B
:10191000DC01CB01F801918380831FC0FE01E45BF1
:10192000FF4F88EC90E091838083FE01E45BFF4FE2
:10193000808191810197F1F7FE01E45BFF4F918374
:101940008083DE01A25BBF4FFE01E25BFF4F80811F
:101950009181019711969C938E93FE01E25BFF4F5C
:10196000808191810097D1F64BC08E01025B1F4FA1
:10197000FE01E05BFF4F60817181828193810E9453
:101980004900DC01CB01F80191838083DE01A65B75
:10199000BF4FFE01E25BFF4F8081918111969C93C6
:1019A0008E93FE01E65BFF4F808191810197F1F7F5
:1019B000FE01E65BFF4F9183808322C08E01085AAF
:1019C0001F4FFE01E75AFF4F608171818281938131
:1019D0000E944900DC01CB01F8018083DE01A75B96
:1019E000BF4FFE01E85AFF4F80818C93FE01E75BF9
:1019F000FF4F80818A95F1F7FE01E75BFF4F8083FF
:101A0000E0E3F0E08081882F90E08870907000978C
:101A100009F0A7CEFE01EB5BFF4F80E090E0A0ED68
:101A2000B2E480839183A283B3838E010F5B1F4F47
:101A3000FE01EB5BFF4F60817181828193812BEA14
:101A40003AEA4AE250E40E941F02DC01CB01F801AD
:101A500080839183A283B383FE01EF5BFF4F60819C
:101A600071818281938120E030E040E85FE30E9451
:101A70002504882334F481E0FE01E05CFF4F80837D
:101A80009DC0FE01EF5BFF4F608171818281938178
:101A900020E030E04FE753E40E94C50318160CF035
:101AA0007EC0FE01EB5BFF4F60817181828193817B
:101AB00020E030E04AE754E40E941903DC01CB0146
:101AC0008CAF9DAFAEAFBFAF6CAD7DAD8EAD9FADFA
:101AD00020E030E04AEF54E40E941F02DC01CB0119
:101AE00088AF99AFAAAFBBAF68AD79AD8AAD9BADFA
:101AF00020E030E040E85FE30E94250488232CF4D6
:101B000081E090E09FAB8EAB3FC068AD79AD8AAD10
:101B10009BAD20E03FEF4FE757E40E94C503181646
:101B20004CF56CAD7DAD8EAD9FAD20E030E040E278
:101B300051E40E941F02DC01CB01BC01CD010E94D7
:101B40004900DC01CB019FAB8EAB0FC088EC90E06D
:101B50009DAB8CAB8CA99DA90197F1F79DAB8CAB8C
:101B60008EA99FA901979FAB8EAB8EA99FA90097C5
:101B700069F72DC068AD79AD8AAD9BAD0E94490073
:101B8000DC01CB019FAB8EAB8EA99FA99BAB8AAB2F
:101B90008AA99BA90197F1F79BAB8AAB18C0FE01FC
:101BA000EF5BFF4F60817181828193810E944900C8
:101BB000DC01CB01FE01E05CFF4F8083FE01E05CB5
:101BC000FF4F808189AB89A98A95F1F789ABFE0126
:101BD000EF59FF4F1082E7C0E0E3F0E08081882FEB
:101BE00090E0887090700097B9F0FE01EF59FF4FB8
:101BF0008081282F30E081E090E002C0880F991F9B
:101C00002A95E2F7982FFE01EC59FF4F8081892B2E
:101C1000FE01EC59FF4F808380E090E0A0EDB2E43C
:101C20008DA79EA7AFA7B8AB6DA57EA58FA598A9D8
:101C30002BEA3AEA4AE250E40E941F02DC01CB019F
:101C400089A79AA7ABA7BCA769A57AA58BA59CA5D0
:101C500020E030E040E85FE30E94250488231CF484
:101C600081E088A791C069A57AA58BA59CA520E0F5
:101C700030E04FE753E40E94C50318160CF07BC018
:101C80006DA57EA58FA598A920E030E04AE754E431
:101C90000E941903DC01CB018CA39DA3AEA3BFA3BB
:101CA0006CA17DA18EA19FA120E030E04AEF54E419
:101CB0000E941F02DC01CB0188A399A3AAA3BBA3A6
:101CC00068A179A18AA19BA120E030E040E85FE310
:101CD0000E94250488232CF481E090E09F8F8E8F52
:101CE0003FC068A179A18AA19BA120E03FEF4FE707
:101CF00057E40E94C50318164CF56CA17DA18EA176
:101D00009FA120E030E040E251E40E941F02DC018C
:101D1000CB01BC01CD010E944900DC01CB019F8FAA
:101D20008E8F0FC088EC90E09D8F8C8F8C8D9D8D59
:101D30000197F1F79D8F8C8F8E8D9F8D01979F8FCF
:101D40008E8F8E8D9F8D009769F724C068A179A131
:101D50008AA19BA10E944900DC01CB019F8F8E8F3D
:101D60008E8D9F8D9B8F8A8F8A8D9B8D0197F1F72A
:101D70009B8F8A8F0FC069A57AA58BA59CA50E9411
:101D80004900DC01CB0188A788A5898F898D8A95B8
:101D9000F1F7898FDE01AF59BF4FFE01EF59FF4FB9
:101DA00080818F5F8C93FE01EF59FF4F80818830D7
:101DB00008F412CF80E090E0A0EDB2E48D8B9E8B12
:101DC000AF8BB88F6D897E898F89988D2BEA3AEA1F
:101DD0004AE250E40E941F02DC01CB01898B9A8BFE
:101DE000AB8BBC8B69897A898B899C8920E030E038
:101DF00040E85FE30E94250488231CF481E0888B7F
:101E000091C069897A898B899C8920E030E04FE70D
:101E100053E40E94C50318160CF07BC06D897E89BF
:101E20008F89988D20E030E04AE754E40E9419033E
:101E3000DC01CB018C879D87AE87BF876C857D8554
:101E40008E859F8520E030E04AEF54E40E941F0217
:101E5000DC01CB0188879987AA87BB87688579854C
:101E60008A859B8520E030E040E85FE30E942504FE
:101E700088232CF481E090E09F838E833FC06885A7
:101E800079858A859B8520E03FEF4FE757E40E94E4
:101E9000C50318164CF56C857D858E859F8520E0E1
:101EA00030E040E251E40E941F02DC01CB01BC01A2
:101EB000CD010E944900DC01CB019F838E830FC0BE
:101EC00088EC90E09D838C838C819D810197F1F754
:101ED0009D838C838E819F8101979F838E838E81CA
:101EE0009F81009769F724C0688579858A859B85DD
:101EF0000E944900DC01CB019F838E838E819F81EC
:101F00009B838A838A819B810197F1F79B838A83D4
:101F10000FC069897A898B899C890E944900DC01FC
:101F2000CB01888B8889898389818A95F1F7898398
:101F3000FE01EC59FF4F2081A6962FAFA697A696DB
:101F40008FADA697CA59DF4F0FB6F894DEBF0FBE0C
:101F5000CDBFCF91DF911F910F910895DF93CF9364
:101F6000CDB7DEB7A2970FB6F894DEBF0FBECDBFD8
:101F700088A30E94091888A1282F30E000D000D043
:101F800000D0EDB7FEB73196CE010F9691838083D6
:101F900085E690E093838283358324830E94492BD6
:101FA0002DB73EB72A5F3F4F0FB6F8943EBF0FBE26
:101FB0002DBFCE010F960E94EC1780E490E00E94A6
:101FC000911888A1282F30E03AA329A389A19AA1CA
:101FD0008834910509F47DC029A13AA1293431053D
:101FE00054F589A19AA18434910509F45EC029A110
:101FF0003AA12534310594F489A19AA1823491053E
:1020000009F449C029A13AA1233431050CF048C094
:1020100089A19AA181349105C9F183C029A13AA16E
:102020002634310509F44BC089A19AA18734910562
:102030000CF04AC03FC029A13AA12C34310509F463
:102040005CC089A19AA18D3491056CF429A13AA1B3
:102050002A34310509F447C089A19AA18B3491052E
:102060000CF046C03BC029A13AA12E34310509F439
:102070004EC089A19AA18E3491050CF443C029A1C8
:102080003AA12F34310509F447C04BC080E790E0F6
:102090000E94EC174AC08CE790E00E94EC1745C004
:1020A0008AE890E00E94EC1740C087E990E00E9427
:1020B000EC173BC083EA90E00E94EC1736C080EB3F
:1020C00090E00E94EC1731C08CEB90E00E94EC177E
:1020D0002CC088EC90E00E94EC1727C086ED90E0C1
:1020E0000E94EC1722C082EE90E00E94EC171DC007
:1020F0008EEE90E00E94EC1718C08BEF90E00E94EB
:10210000EC1713C087E091E00E94EC170EC083E14A
:1021100091E00E94EC1709C081E291E00E94EC1767
:1021200004C08EE291E00E94EC1780E090E0AAEFFC
:10213000B4E48B879C87AD87BE876B857C858D8556
:102140009E8520E030E04AEF54E40E941F02DC014B
:10215000CB018F839887A987BA876F817885898516
:102160009A8520E030E040E85FE30E942504882360
:102170002CF481E090E09E838D833FC06F81788551
:1021800089859A8520E03FEF4FE757E40E94C50319
:1021900018164CF56B857C858D859E8520E030E09A
:1021A00040E251E40E941F02DC01CB01BC01CD01E1
:1021B0000E944900DC01CB019E838D830FC088EC17
:1021C00090E09C838B838B819C810197F1F79C83AA
:1021D0008B838D819E8101979E838D838D819E81CE
:1021E000009769F714C06F81788589859A850E9468
:1021F0004900DC01CB019E838D838D819E819A8372
:10220000898389819A810197F1F79A838983A296BC
:102210000FB6F894DEBF0FBECDBFCF91DF9108950A
:10222000DF93CF93CDB7DEB7CC54D0400FB6F89440
:10223000DEBF0FBECDBFFE01E65BFF4F8083FE0118
:10224000E55BFF4F6083FE01E45BFF4F4083FE01CF
:10225000E65BFF4F8081882339F0FE01E55BFF4F8D
:102260008081882309F07DC00E9409188AE391E0EB
:102270000E94EC1784EF91E00E949F1880E090E0AC
:10228000AAE7B4E48DAB9EABAFABB8AF6DA97EA9A6
:102290008FA998AD20E030E04AEF54E40E941F027D
:1022A000DC01CB0189AB9AABABABBCAB69A97AA91A
:1022B0008BA99CA920E030E040E85FE30E94250460
:1022C00088232CF481E090E098AB8FA73FC069A9E8
:1022D0007AA98BA99CA920E03FEF4FE757E40E9421
:1022E000C50318164CF56DA97EA98FA998AD20E0FD
:1022F00030E040E251E40E941F02DC01CB01BC014E
:10230000CD010E944900DC01CB0198AB8FA70FC023
:1023100088EC90E09EA78DA78DA59EA50197F1F76B
:102320009EA78DA78FA598A9019798AB8FA78FA57A
:1023300098A9009769F7D8C169A97AA98BA99CA91E
:102340000E944900DC01CB0198AB8FA78FA598A90B
:102350009CA78BA78BA59CA50197F1F79CA78BA7A2
:10236000C3C10E940918FE01E65BFF4F8081482F20
:1023700050E0FE01E55BFF4F8081682F70E0FE01B9
:10238000E45BFF4F8081282F30E08DB79EB70A971E
:102390000FB6F8949EBF0FBE8DBFEDB7FEB7319656
:1023A000CE01C996918380838BE491E093838283ED
:1023B0005583448377836683318720870E94492B26
:1023C0008DB79EB70A960FB6F8949EBF0FBE8DBF0D
:1023D000CE01C9960E94EC1780E090E0AAE7B4E431
:1023E0008FA398A7A9A7BAA76FA178A589A59AA531
:1023F00020E030E04AEF54E40E941F02DC01CB01F0
:102400008BA39CA3ADA3BEA36BA17CA18DA19EA118
:1024100020E030E040E85FE30E94250488232CF4AC
:1024200081E090E09AA389A33FC06BA17CA18DA11C
:102430009EA120E03FEF4FE757E40E94C503181626
:102440004CF56FA178A589A59AA520E030E040E27F
:1024500051E40E941F02DC01CB01BC01CD010E94AE
:102460004900DC01CB019AA389A30FC088EC90E05E
:1024700098A38F8F8F8D98A10197F1F798A38F8FD5
:1024800089A19AA101979AA389A389A19AA10097EA
:1024900069F714C06BA17CA18DA19EA10E94490087
:1024A000DC01CB019AA389A389A19AA19E8F8D8F6C
:1024B0008D8D9E8D0197F1F79E8F8D8FFE01E65BCE
:1024C000FF4F80810E94D107FE01E55BFF4F8081B5
:1024D0000E94D107FE01E45BFF4F80810E94D1077B
:1024E000FE01E65BFF4F80810E94DB08FE01E55B99
:1024F000FF4F80810E94DB08FE01E45BFF4F80817B
:102500000E94DB08A8E3B0E0E8E3F0E080818160AE
:102510008C9380E090E0A0EAB1E4898F9A8FAB8F32
:10252000BC8F698D7A8D8B8D9C8D20E030E04AEFD9
:1025300054E40E941F02DC01CB018D8B9E8BAF8B7C
:10254000B88F6D897E898F89988D20E030E040E8D2
:102550005FE30E94250488232CF481E090E09C8BAB
:102560008B8B3FC06D897E898F89988D20E03FEFEE
:102570004FE757E40E94C50318164CF5698D7A8D14
:102580008B8D9C8D20E030E040E251E40E941F02E0
:10259000DC01CB01BC01CD010E944900DC01CB0173
:1025A0009C8B8B8B0FC088EC90E09A8B898B8989F0
:1025B0009A890197F1F79A8B898B8B899C8901976E
:1025C0009C8B8B8B8B899C89009769F714C06D89D4
:1025D0007E898F89988D0E944900DC01CB019C8BFC
:1025E0008B8B8B899C89988B8F878F859889019796
:1025F000F1F7988B8F87A8E3B0E0E8E3F0E0808103
:102600008E7F8C9380E090E0A8E4B2E48B879C8777
:10261000AD87BE876B857C858D859E8520E030E00B
:102620004AEF54E40E941F02DC01CB018F8398879C
:10263000A987BA876F81788589859A8520E030E0FF
:1026400040E85FE30E94250488232CF481E090E0B9
:102650009E838D833FC06F81788589859A8520E030
:102660003FEF4FE757E40E94C50318164CF56B8502
:102670007C858D859E8520E030E040E251E40E941B
:102680001F02DC01CB01BC01CD010E944900DC012D
:10269000CB019E838D830FC088EC90E09C838B835D
:1026A0008B819C810197F1F79C838B838D819E8127
:1026B00001979E838D838D819E81009769F714C059
:1026C0006F81788589859A850E944900DC01CB015C
:1026D0009E838D838D819E819A83898389819A814E
:1026E0000197F1F79A838983C45BDF4F0FB6F894A3
:1026F000DEBF0FBECDBFCF91DF910895DF93CF93A3
:10270000CDB7DEB7AB970FB6F894DEBF0FBECDBF27
:102710008BA7A8E3B0E0E8E3F0E08081282F217EDA
:102720008BA582958F70882F90E0880F991F822B40
:102730008C93A2E3B0E0E2E3F0E080818F7B8C93A6
:10274000A2E3B0E0E2E3F0E0808180688C9380E077
:1027500090E0A0E8BFE38FA398A7A9A7BAA76FA1AD
:1027600078A589A59AA520E030E04AEF54E40E94BC
:102770001F02DC01CB018BA39CA3ADA3BEA36BA165
:102780007CA18DA19EA120E030E040E85FE30E94A3
:10279000250488232CF481E090E09AA389A33FC00C
:1027A0006BA17CA18DA19EA120E03FEF4FE757E4F4
:1027B0000E94C50318164CF56FA178A589A59AA5A6
:1027C00020E030E040E251E40E941F02DC01CB0136
:1027D000BC01CD010E944900DC01CB019AA389A371
:1027E0000FC088EC90E098A38F8F8F8D98A10197F0
:1027F000F1F798A38F8F89A19AA101979AA389A332
:1028000089A19AA1009769F714C06BA17CA18DA141
:102810009EA10E944900DC01CB019AA389A389A152
:102820009AA19E8F8D8F8D8D9E8D0197F1F79E8F32
:102830008D8FA2E3B0E0E2E3F0E080818F778C93AC
:10284000A8E3B0E0E8E3F0E08081282F217E8BA5AB
:10285000882F90E08F709070880F991F822B8C9337
:10286000A2E3B0E0E2E3F0E0808180688C9380E056
:1028700090E0A0E8BFE3898F9A8FAB8FBC8F698D02
:102880007A8D8B8D9C8D20E030E04AEF54E40E94DD
:102890001F02DC01CB018D8B9E8BAF8BB88F6D89B6
:1028A0007E898F89988D20E030E040E85FE30E94C8
:1028B000250488232CF481E090E09C8B8B8B3FC017
:1028C0006D897E898F89988D20E03FEF4FE757E42F
:1028D0000E94C50318164CF5698D7A8D8B8D9C8DE1
:1028E00020E030E040E251E40E941F02DC01CB0115
:1028F000BC01CD010E944900DC01CB019C8B8B8B7C
:102900000FC088EC90E09A8B898B89899A8901970E
:10291000F1F79A8B898B8B899C8901979C8B8B8B88
:102920008B899C89009769F714C06D897E898F898E
:10293000988D0E944900DC01CB019C8B8B8B8B898D
:102940009C89988B8F878F8598890197F1F7988B51
:102950008F87A2E3B0E0E2E3F0E080818F778C9391
:1029600080E090E0A0E0B0E48B879C87AD87BE87D5
:102970006B857C858D859E8520E030E04AEF54E4B0
:102980000E941F02DC01CB018F839887A987BA8739
:102990006F81788589859A8520E030E040E85FE3A3
:1029A0000E94250488232CF481E090E09E838D838F
:1029B0003FC06F81788589859A8520E03FEF4FE79A
:1029C00057E40E94C50318164CF56B857C858D85F0
:1029D0009E8520E030E040E251E40E941F02DC01CD
:1029E000CB01BC01CD010E944900DC01CB019E83DB
:1029F0008D830FC088EC90E09C838B838B819C81BE
:102A00000197F1F79C838B838D819E8101979E8333
:102A10008D838D819E81009769F714C06F817885C1
:102A200089859A850E944900DC01CB019E838D83B4
:102A30008D819E819A83898389819A810197F1F79B
:102A40009A838983AB960FB6F894DEBF0FBECDBFD5
:102A5000CF91DF910895DF93CF93CDB7DEB7AB97DA
:102A60000FB6F894DEBF0FBECDBF8BA7A8E3B0E0D2
:102A7000E8E3F0E08081282F217E8BA582958F707E
:102A8000882F90E0880F991F822B8C93A2E3B0E0EF
:102A9000E2E3F0E0808180648C93A2E3B0E0E2E3C3
:102AA000F0E0808180688C9380E090E0A0E8BFE354
:102AB0008FA398A7A9A7BAA76FA178A589A59AA55A
:102AC00020E030E04AEF54E40E941F02DC01CB0119
:102AD0008BA39CA3ADA3BEA36BA17CA18DA19EA142
:102AE00020E030E040E85FE30E94250488232CF4D6
:102AF00081E090E09AA389A33FC06BA17CA18DA146
:102B00009EA120E03FEF4FE757E40E94C50318164F
:102B10004CF56FA178A589A59AA520E030E040E2A8
:102B200051E40E941F02DC01CB01BC01CD010E94D7
:102B30004900DC01CB019AA389A30FC088EC90E087
:102B400098A38F8F8F8D98A10197F1F798A38F8FFE
:102B500089A19AA101979AA389A389A19AA1009713
:102B600069F714C06BA17CA18DA19EA10E944900B0
:102B7000DC01CB019AA389A389A19AA19E8F8D8F95
:102B80008D8D9E8D0197F1F79E8F8D8FA2E3B0E022
:102B9000E2E3F0E080818F778C93A8E3B0E0E8E394
:102BA000F0E08081282F217E8BA5882F90E08F7008
:102BB0009070880F991F822B8C93A2E3B0E0E2E320
:102BC000F0E0808180688C9380E090E0A0E8BFE333
:102BD000898F9A8FAB8FBC8F698D7A8D8B8D9C8DF1
:102BE00020E030E04AEF54E40E941F02DC01CB01F8
:102BF0008D8B9E8BAF8BB88F6D897E898F89988DD9
:102C000020E030E040E85FE30E94250488232CF4B4
:102C100081E090E09C8B8B8B3FC06D897E898F8992
:102C2000988D20E03FEF4FE757E40E94C503181648
:102C30004CF5698D7A8D8B8D9C8D20E030E040E2E3
:102C400051E40E941F02DC01CB01BC01CD010E94B6
:102C50004900DC01CB019C8B8B8B0FC088EC90E092
:102C60009A8B898B89899A890197F1F79A8B898B3D
:102C70008B899C8901979C8B8B8B8B899C89009776
:102C800069F714C06D897E898F89988D0E944900EB
:102C9000DC01CB019C8B8B8B8B899C89988B8F87DC
:102CA0008F8598890197F1F7988B8F87A2E3B0E021
:102CB000E2E3F0E080818F778C9380E090E0A0E009
:102CC000B0E48B879C87AD87BE876B857C858D85BF
:102CD0009E8520E030E04AEF54E40E941F02DC01B0
:102CE000CB018F839887A987BA876F81788589857B
:102CF0009A8520E030E040E85FE30E9425048823C5
:102D00002CF481E090E09E838D833FC06F817885B5
:102D100089859A8520E03FEF4FE757E40E94C5037D
:102D200018164CF56B857C858D859E8520E030E0FE
:102D300040E251E40E941F02DC01CB01BC01CD0145
:102D40000E944900DC01CB019E838D830FC088EC7B
:102D500090E09C838B838B819C810197F1F79C830E
:102D60008B838D819E8101979E838D838D819E8132
:102D7000009769F714C06F81788589859A850E94CC
:102D80004900DC01CB019E838D838D819E819A83D6
:102D9000898389819A810197F1F79A838983AB9618
:102DA0000FB6F894DEBF0FBECDBFCF91DF9108956F
:102DB000DF93CF93CDB7DEB76C970FB6F894DEBF35
:102DC0000FBECDBFA7E3B0E0E7E3F0E080818E6106
:102DD0008C93A1E3B0E0E1E3F0E08081806C8C9320
:102DE00080E090E0A0EAB1E4898F9A8FAB8FBC8F2E
:102DF000698D7A8D8B8D9C8D20E030E04AEF54E414
:102E00000E941F02DC01CB018D8B9E8BAF8BB88F94
:102E10006D897E898F89988D20E030E040E85FE3FE
:102E20000E94250488232CF481E090E09C8B8B8BFE
:102E30003FC06D897E898F89988D20E03FEF4FE7F5
:102E400057E40E94C50318164CF5698D7A8D8B8D59
:102E50009C8D20E030E040E251E40E941F02DC0142
:102E6000CB01BC01CD010E944900DC01CB019C8B50
:102E70008B8B0FC088EC90E09A8B898B89899A891B
:102E80000197F1F79A8B898B8B899C8901979C8B91
:102E90008B8B8B899C89009769F714C06D897E891B
:102EA0008F89988D0E944900DC01CB019C8B8B8B14
:102EB0008B899C89988B8F878F8598890197F1F7EB
:102EC000988B8F8782E00E947E1388E20E947E1397
:102ED0008CE00E947E1386E00E947E1381E00E94B7
:102EE0007E1380E090E0A0E0B0E48B879C87AD8704
:102EF000BE876B857C858D859E8520E030E04AEF1E
:102F000054E40E941F02DC01CB018F839887A987BC
:102F1000BA876F81788589859A8520E030E040E81E
:102F20005FE30E94250488232CF481E090E09E83D7
:102F30008D833FC06F81788589859A8520E03FEF3A
:102F40004FE757E40E94C50318164CF56B857C8546
:102F50008D859E8520E030E040E251E40E941F0212
:102F6000DC01CB01BC01CD010E944900DC01CB0199
:102F70009E838D830FC088EC90E09C838B838B8134
:102F80009C810197F1F79C838B838D819E810197B2
:102F90009E838D838D819E81009769F714C06F8118
:102FA000788589859A850E944900DC01CB019E8342
:102FB0008D838D819E819A83898389819A810197EE
:102FC000F1F79A8389836C960FB6F894DEBF0FBE33
:102FD000CDBFCF91DF910895DF93CF9300D0CDB7D0
:102FE000DEB79A8389830BC0E981FA8120818981C8
:102FF0009A8101969A838983822F0E942B15E981F9
:10300000FA818081882381F70F900F90CF91DF9113
:103010000895DF93CF93CDB7DEB72E970FB6F89410
:10302000DEBF0FBECDBF81E00E947E1380E090E046
:10303000A0E0B0E48B879C87AD87BE876B857C85DD
:103040008D859E8520E030E04AEF54E40E941F0207
:10305000DC01CB018F839887A987BA876F81788538
:1030600089859A8520E030E040E85FE30E942504EE
:1030700088232CF481E090E09E838D833FC06F8194
:10308000788589859A8520E03FEF4FE757E40E94D5
:10309000C50318164CF56B857C858D859E8520E0D3
:1030A00030E040E251E40E941F02DC01CB01BC0190
:1030B000CD010E944900DC01CB019E838D830FC0AE
:1030C00088EC90E09C838B838B819C810197F1F746
:1030D0009C838B838D819E8101979E838D838D81BF
:1030E0009E81009769F714C06F81788589859A85DC
:1030F0000E944900DC01CB019E838D838D819E81DE
:103100009A83898389819A810197F1F79A838983C8
:103110002E960FB6F894DEBF0FBECDBFCF91DF91D4
:103120000895DF93CF930F92CDB7DEB7898389815E
:1031300080680E947E130F90CF91DF910895DF93F6
:10314000CF93CDB7DEB760970FB6F894DEBF0FBE52
:10315000CDBF988B8F878F85988927E0813D920717
:1031600020F080ED97E0988B8F87A8E3B0E0E8E34C
:10317000F0E0808181608C938F859889CC01A0E0FC
:10318000B0E0BC01CD010E94A904DC01CB018B871A
:103190009C87AD87BE876B857C858D859E8520E06D
:1031A00030E04AEF54E40E941F02DC01CB018F8320
:1031B0009887A987BA876F81788589859A8520E065
:1031C00030E040E85FE30E94250488232CF481E08E
:1031D00090E09E838D833FC06F81788589859A8535
:1031E00020E03FEF4FE757E40E94C50318164CF567
:1031F0006B857C858D859E8520E030E040E251E442
:103200000E941F02DC01CB01BC01CD010E944900DC
:10321000DC01CB019E838D830FC088EC90E09C8302
:103220008B838B819C810197F1F79C838B838D81AC
:103230009E8101979E838D838D819E81009769F782
:1032400014C06F81788589859A850E944900DC01C8
:10325000CB019E838D838D819E819A838983898111
:103260009A810197F1F79A838983A8E3B0E0E8E3B4
:10327000F0E080818E7F8C9360960FB6F894DEBF6D
:103280000FBECDBFCF91DF910895DF93CF93CDB720
:10329000DEB7E0970FB6F894DEBF0FBECDBFAE012C
:1032A000455E5F4F5DA74CA787E394E09FA78EA77D
:1032B00090E198ABEEA5FFA500804EA55FA54F5FFE
:1032C0005F4F5FA74EA7ECA5FDA500824CA55DA5AD
:1032D0004F5F5F4F5DA74CA758A9515058AB88A9C5
:1032E000882341F78091500490915104A091520499
:1032F000B09153040097A105B105D9F080914B041A
:1033000090914C04A0914D04B0914E042091500432
:10331000309151044091520450915304821B930BFD
:10332000A40BB50B84369105A105B10510F41BA6BD
:1033300031C11A8E2AC1EBE3F0E08A8D282F30E0EC
:1033400081E090E002C0880F991F2A95E2F78095EE
:10335000808380E090E0A0EAB0E48D8B9E8BAF8B01
:10336000B88F6D897E898F89988D2BEA3AEA4AE277
:1033700050E40E941F02DC01CB01898B9A8BAB8B3E
:10338000BC8B69897A898B899C8920E030E040E890
:103390005FE30E94250488231CF481E0888B91C0A0
:1033A00069897A898B899C8920E030E04FE753E472
:1033B0000E94C50318160CF07BC06D897E898F8929
:1033C000988D20E030E04AE754E40E941903DC01C4
:1033D000CB018C879D87AE87BF876C857D858E8569
:1033E0009F8520E030E04AEF54E40E941F02DC0198
:1033F000CB0188879987AA87BB87688579858A8565
:103400009B8520E030E040E85FE30E9425048823AC
:103410002CF481E090E09F838E833FC0688579859E
:103420008A859B8520E03FEF4FE757E40E94C50364
:1034300018164CF56C857D858E859F8520E030E0E3
:1034400040E251E40E941F02DC01CB01BC01CD012E
:103450000E944900DC01CB019F838E830FC088EC62
:1034600090E09D838C838C819D810197F1F79D83F2
:103470008C838E819F8101979F838E838E819F8114
:10348000009769F724C0688579858A859B850E94A5
:103490004900DC01CB019F838E838E819F819B83BA
:1034A0008A838A819B810197F1F79B838A830FC06E
:1034B00069897A898B899C890E944900DC01CB014A
:1034C000888B8889898389818A95F1F78983198E08
:1034D00055C0E9E3F0E08081282F30E0898D882F06
:1034E00090E00496F90102C0F595E7958A95E2F718
:1034F000CF0181709070009709F03DC0E9E3F0E0E2
:103500008081282F30E0898D882F90E00496A901D2
:1035100002C0559547958A95E2F7CA01817090706F
:10352000009761F382E390E00E949F1880914B0422
:1035300090914C04A0914D04B0914E04809350049E
:1035400090935104A0935204B09353048A8D282F72
:1035500030E0898D482F50E0220F331F220F331F98
:10356000CE010196820F931F840F951FFC017A965E
:1035700050815BA70FC0898D8F5F898F898D8430C3
:1035800008F4A7CF8A8D8F5F8A8F8A8D843008F4E4
:10359000D2CE1BA68BA5E0960FB6F894DEBF0FBE69
:1035A000CDBFCF91DF910895DF93CF93CDB7DEB735
:1035B00068970FB6F894DEBF0FBECDBF9E8B8D8B84
:1035C0006F8B1B8A80914B0490914C04A0914D0409
:1035D000B0914E048F87988BA98BBA8BA6C080912F
:1035E0004B0490914C04A0914D04B0914E042F8552
:1035F000388949895A89821B930BA40BB50B8133F7
:1036000025E7920720E0A20720E0B20728F0ED8925
:10361000FE891082188E99C00E9445198C8B8C8966
:10362000882309F482C08B89282F30E08D899E89F8
:10363000FC01E20FF31F8C8980838B898F5F8B8B5A
:103640008AE20E942B1580E090E0A8ECB2E48B8720
:103650009C87AD87BE876B857C858D859E8520E0A8
:1036600030E04AEF54E40E941F02DC01CB018F835B
:103670009887A987BA876F81788589859A8520E0A0
:1036800030E040E85FE30E94250488232CF481E0C9
:1036900090E09E838D833FC06F81788589859A8570
:1036A00020E03FEF4FE757E40E94C50318164CF5A2
:1036B0006B857C858D859E8520E030E040E251E47D
:1036C0000E941F02DC01CB01BC01CD010E94490018
:1036D000DC01CB019E838D830FC088EC90E09C833E
:1036E0008B838B819C810197F1F79C838B838D81E8
:1036F0009E8101979E838D838D819E81009769F7BE
:1037000014C06F81788589859A850E944900DC0103
:10371000CB019E838D838D819E819A83898389814C
:103720009A810197F1F79A8389839B898F899817EA
:1037300008F455CF8F89282F30E08D899E89FC01B0
:10374000E20FF31F108281E0888F888D68960FB694
:10375000F894DEBF0FBECDBFCF91DF910895DF9308
:10376000CF93CDB7DEB70E9409188BE591E00E9498
:10377000EC1780E40E9491188AE691E00E94EC1711
:10378000CF91DF910895DF93CF93CDB7DEB70E943D
:10379000091888E791E00E94EC1780E40E949118D4
:1037A00084E891E00E94EC17CF91DF910895DF93B8
:1037B000CF9300D00F92CDB7DEB789830E9409184E
:1037C0008981882329F085E991E09B838A8304C05D
:1037D00084EA91E09B838A838A819B810E94EC1713
:1037E00080E40E94911883EB91E00E94EC170F9007
:1037F0000F900F90CF91DF910895DF93CF9300D07A
:103800000F92CDB7DEB789830E940918898188237A
:1038100029F086EC91E09B838A8304C085ED91E0DA
:103820009B838A838A819B810E94EC1780E40E949B
:10383000911884EE91E00E94EC170F900F900F907A
:10384000CF91DF910895DF93CF93CDB7DEB70E947C
:10385000091884EF91E00E94EC1780E40E9491180F
:103860008EEF91E00E94EC17CF91DF910895DF93E6
:10387000CF93CDB7DEB760970FB6F894DEBF0FBE1B
:10388000CDBF0E9409188AE092E00E94EC178CE2FA
:1038900091E00E949F1880E090E0AAE7B4E48B8753
:1038A0009C87AD87BE876B857C858D859E8520E056
:1038B00030E04AEF54E40E941F02DC01CB018F8309
:1038C0009887A987BA876F81788589859A8520E04E
:1038D00030E040E85FE30E94250488232CF481E077
:1038E00090E09E838D833FC06F81788589859A851E
:1038F00020E03FEF4FE757E40E94C50318164CF550
:103900006B857C858D859E8520E030E040E251E42A
:103910000E941F02DC01CB01BC01CD010E944900C5
:10392000DC01CB019E838D830FC088EC90E09C83EB
:103930008B838B819C810197F1F79C838B838D8195
:103940009E8101979E838D838D819E81009769F76B
:1039500014C06F81788589859A850E944900DC01B1
:10396000CB019E838D838D819E819A8389838981FA
:103970009A810197F1F79A83898380914A04282FCD
:1039800030E0388B2F878F8598898230910501F13F
:103990002F8538892330310554F48F859889009715
:1039A00089F02F8538892130310579F01DC08F8548
:1039B00098898330910589F02F8538892430310525
:1039C00089F012C00E94AF1B0FC00E94C31B0CC025
:1039D00080914F040E94D71B07C080914F040E9422
:1039E000FD1B02C00E94231C60960FB6F894DEBF38
:1039F0000FBECDBFCF91DF910895DF93CF93CDB7A9
:103A0000DEB7AE970FB6F894DEBF0FBECDBF0E94F3
:103A100009188BE192E00E94EC1783E562E541E32F
:103A20000E94101180E090E0A8ECB2E4898F9A8F98
:103A3000AB8FBC8F698D7A8D8B8D9C8D20E030E0B3
:103A40004AEF54E40E941F02DC01CB018D8B9E8B58
:103A5000AF8BB88F6D897E898F89988D20E030E09B
:103A600040E85FE30E94250488232CF481E090E085
:103A70009C8B8B8B3FC06D897E898F89988D20E0D0
:103A80003FEF4FE757E40E94C50318164CF5698DC8
:103A90007A8D8B8D9C8D20E030E040E251E40E94D5
:103AA0001F02DC01CB01BC01CD010E944900DC01F9
:103AB000CB019C8B8B8B0FC088EC90E09A8B898B11
:103AC00089899A890197F1F79A8B898B8B899C89CF
:103AD00001979C8B8B8B8B899C89009769F714C00D
:103AE0006D897E898F89988D0E944900DC01CB0108
:103AF0009C8B8B8B8B899C89988B8F878F859889E2
:103B00000197F1F7988B8F870E94E8078E8F0E94AC
:103B1000E8078D8F8E8D8F3F19F08D8D8F3F59F473
:103B20000E9409188DE292E00E94EC1784EF91E068
:103B30000E949F1831C08E8D282F30E08D8D482F28
:103B400050E08DB79EB708970FB6F8949EBF0FBE92
:103B50008DBFEDB7FEB73196CE014F96918380832E
:103B60008BE392E093838283358324835783468358
:103B70000E94492B8DB79EB708960FB6F8949EBF4A
:103B80000FBE8DBF0E940918CE014F960E94EC1700
:103B900088EC90E00E949F1880E090E8ABE3B5E4E9
:103BA0008B879C87AD87BE876B857C858D859E8541
:103BB00020E030E04AEF54E40E941F02DC01CB0118
:103BC0008F839887A987BA876F81788589859A8539
:103BD00020E030E040E85FE30E94250488232CF4D5
:103BE00081E090E09E838D833FC06F8178858985D9
:103BF0009A8520E03FEF4FE757E40E94C50318166F
:103C00004CF56B857C858D859E8520E030E040E21B
:103C100051E40E941F02DC01CB01BC01CD010E94D6
:103C20004900DC01CB019E838D830FC088EC90E0BE
:103C30009C838B838B819C810197F1F79C838B8381
:103C40008D819E8101979E838D838D819E810097BA
:103C500069F714C06F81788589859A850E9449002B
:103C6000DC01CB019E838D838D819E819A83898324
:103C700089819A810197F1F79A8389830E94C31BF6
:103C8000AE960FB6F894DEBF0FBECDBFCF91DF91D9
:103C90000895DF93CF93CDB7DEB7A2970FB6F89410
:103CA000DEBF0FBECDBF8E8F909148048E8D8917D9
:103CB00009F44DC180914804882359F487E466E4EF
:103CC00040E30E94101187E46CE448E50E94101163
:103CD0000AC086E466E440E30E94101186E46CE4C6
:103CE00048E50E9410118E8D882319F484E48AA37C
:103CF00002C095E59AA385E46AA141E30E941011F0
:103D00000E9409188DE492E00E94EC1784EF91E084
:103D10000E949F181D8E7CC080E090E0AAE7B4E46A
:103D2000898F9A8FAB8FBC8F698D7A8D8B8D9C8D8F
:103D300020E030E04AEF54E40E941F02DC01CB0196
:103D40008D8B9E8BAF8BB88F6D897E898F89988D77
:103D500020E030E040E85FE30E94250488232CF453
:103D600081E090E09C8B8B8B3FC06D897E898F8931
:103D7000988D20E03FEF4FE757E40E94C5031816E7
:103D80004CF5698D7A8D8B8D9C8D20E030E040E282
:103D900051E40E941F02DC01CB01BC01CD010E9455
:103DA0004900DC01CB019C8B8B8B0FC088EC90E031
:103DB0009A8B898B89899A890197F1F79A8B898BDC
:103DC0008B899C8901979C8B8B8B8B899C89009715
:103DD00069F714C06D897E898F89988D0E9449008A
:103DE000DC01CB019C8B8B8B8B899C89988B8F877B
:103DF0008F8598890197F1F7988B8F8780E40E94CF
:103E0000911887E592E00E94EC178D8D8F5F8D8F62
:103E10008D8D883008F480CF8E8D809348040E9469
:103E2000091880914804882329F089E592E099A334
:103E300088A304C085E692E099A388A388A199A1EC
:103E40000E94EC1788EC90E00E949F1880E090E0C0
:103E5000AAE7B4E48B879C87AD87BE876B857C859A
:103E60008D859E8520E030E04AEF54E40E941F02D9
:103E7000DC01CB018F839887A987BA876F8178850A
:103E800089859A8520E030E040E85FE30E942504C0
:103E900088232CF481E090E09E838D833FC06F8166
:103EA000788589859A8520E03FEF4FE757E40E94A7
:103EB000C50318164CF56B857C858D859E8520E0A5
:103EC00030E040E251E40E941F02DC01CB01BC0162
:103ED000CD010E944900DC01CB019E838D830FC080
:103EE00088EC90E09C838B838B819C810197F1F718
:103EF0009C838B838D819E8101979E838D838D8191
:103F00009E81009769F714C06F81788589859A85AD
:103F10000E944900DC01CB019E838D838D819E81AF
:103F20009A83898389819A810197F1F79A8389839A
:103F30008E8D882319F096E49F8F02C087E48F8FBF
:103F40008F8D69E441E30E9410110E94C31BA29669
:103F50000FB6F894DEBF0FBECDBFCF91DF910895AD
:103F60000F931F93DF93CF93CDB7DEB7C356D040E7
:103F70000FB6F894DEBF0FBECDBF0E94091882E7CE
:103F800092E00E94EC1780E40E949118CE018B5AB7
:103F90009F4F64E00E94D41A882309F0BFC00E949A
:103FA000091884E892E00E94EC1784EF91E00E94E7
:103FB0009F18FE01EF5AFF4F80E090E0AAEFB4E4B3
:103FC00080839183A283B3838E01035B1F4FFE0125
:103FD000EF5AFF4F608171818281938120E030E050
:103FE0004AEF54E40E941F02DC01CB01F8018083F8
:103FF0009183A283B383FE01E35BFF4F60817181F4
:104000008281938120E030E040E85FE30E94250454
:10401000882344F4FE01E55BFF4F81E090E091834B
:10402000808364C0FE01E35BFF4F60817181828108
:10403000938120E03FEF4FE757E40E94C503181635
:104040000CF043C0FE01EF5AFF4F60817181828105
:10405000938120E030E040E251E40E941F02DC0145
:10406000CB018E01055B1F4FBC01CD010E944900B1
:10407000DC01CB01F801918380831FC0FE01E75B67
:10408000FF4F88EC90E091838083FE01E75BFF4F58
:10409000808191810197F1F7FE01E75BFF4F9183EA
:1040A0008083DE01A55BBF4FFE01E55BFF4F808192
:1040B0009181019711969C938E93FE01E55BFF4FD2
:1040C000808191810097D1F600C38E01055B1F4F5F
:1040D000FE01E35BFF4F60817181828193810E94C9
:1040E0004900DC01CB01F80191838083DE01A95BEB
:1040F000BF4FFE01E55BFF4F8081918111969C933C
:104100008E93FE01E95BFF4F808191810197F1F76A
:10411000FE01E95BFF4F91838083D7C2CE01815AB4
:104120009F4F20E030E0B90145E050E00E944A2D69
:10413000CE018B5A9F4F9E01215A3F4FB90144E057
:1041400050E00E943B2B009709F490C00E94091890
:104150008DE892E00E94EC1784EF91E00E949F1896
:10416000FE01ED5BFF4F80E090E0AAEFB4E48083B6
:104170009183A283B3838E01015C1F4FFE01ED5B2F
:10418000FF4F608171818281938120E030E04AEFAE
:1041900054E40E941F02DC01CB01F801808391836B
:1041A000A283B383FE01FF96608171818281938136
:1041B00020E030E040E85FE30E94250488232CF4EF
:1041C00081E090E09EAF8DAF46C0FE01FF9660811A
:1041D00071818281938120E03FEF4FE757E40E9495
:1041E000C503181664F5FE01ED5BFF4F6081718118
:1041F0008281938120E030E040E251E40E941F027E
:10420000DC01CB01BC01CD010E944900DC01CB01E6
:104210009EAF8DAF0FC088EC90E09CAF8BAF8BADA5
:104220009CAD0197F1F79CAF8BAF8DAD9EAD019723
:104230009EAF8DAF8DAD9EAD009769F746C2FE0172
:10424000FF9660817181828193810E944900DC0127
:10425000CB019EAF8DAF8DAD9EAD9AAF89AF89ADCD
:104260009AAD0197F1F79AAF89AF2FC20E94091852
:104270008DE992E00E94EC1780E40E949118CE0133
:104280008B5A9F4F64E00E94D41A882309F07DC0A6
:104290000E94091884E892E00E94EC1784EF91E0F4
:1042A0000E949F1880E090E0AAEFB4E48DAB9EAB33
:1042B000AFABB8AF6DA97EA98FA998AD20E030E073
:1042C0004AEF54E40E941F02DC01CB0189AB9AAB98
:1042D000ABABBCAB69A97AA98BA99CA920E030E063
:1042E00040E85FE30E94250488232CF481E090E0FD
:1042F00098AB8FA73FC069A97AA98BA99CA920E098
:104300003FEF4FE757E40E94C50318164CF56DA91F
:104310007EA98FA998AD20E030E040E251E40E94F0
:104320001F02DC01CB01BC01CD010E944900DC0170
:10433000CB0198AB8FA70FC088EC90E09EA78DA70C
:104340008DA59EA50197F1F79EA78DA78FA598A98A
:10435000019798AB8FA78FA598A9009769F7B5C16A
:1043600069A97AA98BA99CA90E944900DC01CB010B
:1043700098AB8FA78FA598A99CA78BA78BA59CA569
:104380000197F1F79CA78BA7A0C10E9409188BEA9F
:1043900092E00E94EC1780E40E949118CE01865AA8
:1043A0009F4F64E00E94D41A882309F07DC00E94C8
:1043B000091884E892E00E94EC1784EF91E00E94D3
:1043C0009F1880E090E0AAEFB4E48FA398A7A9A774
:1043D000BAA76FA178A589A59AA520E030E04AEF99
:1043E00054E40E941F02DC01CB018BA39CA3ADA36C
:1043F000BEA36BA17CA18DA19EA120E030E040E88E
:104400005FE30E94250488232CF481E090E09AA3C6
:1044100089A33FC06BA17CA18DA19EA120E03FEFAD
:104420004FE757E40E94C50318164CF56FA178A515
:1044300089A59AA520E030E040E251E40E941F02E5
:10444000DC01CB01BC01CD010E944900DC01CB01A4
:104450009AA389A30FC088EC90E098A38F8F8F8DCB
:1044600098A10197F1F798A38F8F89A19AA101973D
:104470009AA389A389A19AA1009769F726C16BA184
:104480007CA18DA19EA10E944900DC01CB019AA3D1
:1044900089A389A19AA19E8F8D8F8D8D9E8D019765
:1044A000F1F79E8F8D8F11C1CE018B5A9F4F9E01C8
:1044B000265A3F4FB90144E050E00E943B2B009741
:1044C00009F47DC00E9409188BEB92E00E94EC1762
:1044D00084EF91E00E949F1880E090E0AAEFB4E49E
:1044E000898F9A8FAB8FBC8F698D7A8D8B8D9C8DC8
:1044F00020E030E04AEF54E40E941F02DC01CB01CF
:104500008D8B9E8BAF8BB88F6D897E898F89988DAF
:1045100020E030E040E85FE30E94250488232CF48B
:1045200081E090E09C8B8B8B3FC06D897E898F8969
:10453000988D20E03FEF4FE757E40E94C50318161F
:104540004CF5698D7A8D8B8D9C8D20E030E040E2BA
:1045500051E40E941F02DC01CB01BC01CD010E948D
:104560004900DC01CB019C8B8B8B0FC088EC90E069
:104570009A8B898B89899A890197F1F79A8B898B14
:104580008B899C8901979C8B8B8B8B899C8900974D
:1045900069F79BC06D897E898F89988D0E9449003B
:1045A000DC01CB019C8B8B8B8B899C89988B8F87B3
:1045B0008F8598890197F1F7988B8F8786C0CE01F8
:1045C0008B5A9F4F20E030E0B90145E050E00E9457
:1045D0005A2D0E94091889EC92E00E94EC1788EC91
:1045E00090E00E949F1880E090E0AAEFB4E48B87EF
:1045F0009C87AD87BE876B857C858D859E8520E0F9
:1046000030E04AEF54E40E941F02DC01CB018F83AB
:104610009887A987BA876F81788589859A8520E0F0
:1046200030E040E85FE30E94250488232CF481E019
:1046300090E09E838D833FC06F81788589859A85C0
:1046400020E03FEF4FE757E40E94C50318164CF5F2
:104650006B857C858D859E8520E030E040E251E4CD
:104660000E941F02DC01CB01BC01CD010E94490068
:10467000DC01CB019E838D830FC088EC90E09C838E
:104680008B838B819C810197F1F79C838B838D8138
:104690009E8101979E838D838D819E81009769F70E
:1046A00014C06F81788589859A850E944900DC0154
:1046B000CB019E838D838D819E819A83898389819D
:1046C0009A810197F1F79A838983CD59DF4F0FB60D
:1046D000F894DEBF0FBECDBFCF91DF911F910F9138
:1046E0000895DF93CF9300D00F92CDB7DEB78983C3
:1046F00089810E94AE0F8981282F30E03B832A8375
:104700008A819B818834910509F484C02A813B8188
:104710002934310554F58A819B818434910509F44B
:1047200061C02A813B812534310594F48A819B81C3
:104730008234910509F44AC02A813B812334310532
:104740000CF04AC08A819B8181349105C9F192C0E5
:104750002A813B812634310509F450C08A819B812E
:10476000873491050CF050C043C02A813B812C3422
:10477000310509F473C08A819B818D3491056CF4F5
:104780002A813B812A34310509F450C08A819B81FA
:104790008B3491050CF05CC043C02A813B812E34E0
:1047A000310509F449C08A819B818E3491050CF44E
:1047B0005BC02A813B812F34310509F443C05AC0C4
:1047C00087E46CE442E50E94101156C087E46CE473
:1047D00047E40E94101150C087E46CE442E40E9458
:1047E00010114AC087E466E441E30E94101144C0FE
:1047F00087E466E442E30E9410113EC087E466E469
:1048000040E30E94101138C085E465E541E30E9451
:10481000101132C085E464E441E30E9410112CC001
:1048200083E562E541E30E94101126C086E46CE452
:1048300042E50E94101120C086E46CE447E40E9427
:1048400010111AC086E46CE442E40E94101114C0F6
:1048500086E466E442E30E9410110EC086E466E43A
:1048600041E30E94101108C086E466E440E30E9420
:10487000101102C00E94371C0F900F900F90CF9123
:10488000DF9108950F931F93DF93CF93CDB7DEB7DA
:10489000C857D0400FB6F894DEBF0FBECDBFA7E318
:1048A000B0E0E7E3F0E080818F618C93A1E3B0E0BA
:1048B000E1E3F0E08081846C8C93A1E3B0E0E1E37C
:1048C000F0E08081877F8C93A2E3B0E0E2E3F0E048
:1048D000808188608C93EAE3F0E08FE08083EBE3F3
:1048E000F0E080EF80830E94D8160E9464078AE57A
:1048F0000E94860783E390E00E94B2070E94170798
:10490000CE0189599F4F25E0FC01DF01322F1D9216
:104910003A95E9F7CE0184599F4F25E0FC01DF016C
:10492000322F1D923A95E9F7FE01EA59FF4F1082A6
:10493000FE01EB59FF4F10820E9409188BED92E0A7
:104940000E94EC1780E40E949118CE0189599F4F74
:1049500064E00E94D41A882309F0BFC00E9409189D
:1049600084E892E00E94EC1784EF91E00E949F1887
:10497000FE01E15AFF4F80E090E0AAEFB4E48083AB
:104980009183A283B3838E01055A1F4FFE01E15A22
:10499000FF4F608171818281938120E030E04AEF96
:1049A00054E40E941F02DC01CB01F8018083918353
:1049B000A283B383FE01E55AFF4F6081718182813A
:1049C000938120E030E040E85FE30E9425048823E3
:1049D00044F4FE01E75AFF4F81E090E09183808329
:1049E00064C0FE01E55AFF4F60817181828193812D
:1049F00020E03FEF4FE757E40E94C50318160CF084
:104A000043C0FE01E15AFF4F608171818281938131
:104A100020E030E040E251E40E941F02DC01CB01C3
:104A20008E01075A1F4FBC01CD010E944900DC01D5
:104A3000CB01F801918380831FC0FE01E95AFF4F2B
:104A400088EC90E091838083FE01E95AFF4F8081DA
:104A500091810197F1F7FE01E95AFF4F918380831D
:104A6000DE01A75ABF4FFE01E75AFF4F80819181B7
:104A7000019711969C938E93FE01E75AFF4F808118
:104A800091810097D1F658CF8E01075A1F4FFE0132
:104A9000E55AFF4F60817181828193810E944900B4
:104AA000DC01CB01F80191838083DE01AB5ABF4F5B
:104AB000FE01E75AFF4F8081918111969C938E935E
:104AC000FE01EB5AFF4F808191810197F1F7FE01C2
:104AD000EB5AFF4F918380832FCFCE0184599F4F94
:104AE00020E030E0B90145E050E00E944A2DCE01BF
:104AF00089599F4F9E0124593F4FB90144E050E02E
:104B00000E943B2B009709F0CFC085E090E060E069
:104B10000E946A2D0E9409188BEE92E00E94EC1709
:104B200084E690E00E949F1884EB0E948607FE01B5
:104B3000EF5AFF4F80E090E8ABE3B5E480839183C8
:104B4000A283B3838E01035B1F4FFE01EF5AFF4F19
:104B5000608171818281938120E030E04AEF54E4EA
:104B60000E941F02DC01CB01F80180839183A283A4
:104B7000B383FE01E35BFF4F60817181828193818A
:104B800020E030E040E85FE30E942504882344F4FD
:104B9000FE01E55BFF4F81E090E09183808364C07C
:104BA000FE01E35BFF4F608171818281938120E090
:104BB0003FEF4FE757E40E94C50318160CF043C0BF
:104BC000FE01EF5AFF4F608171818281938120E065
:104BD00030E040E251E40E941F02DC01CB018E0173
:104BE000055B1F4FBC01CD010E944900DC01CB01D8
:104BF000F801918380831FC0FE01E75BFF4F88ECC3
:104C000090E091838083FE01E75BFF4F808191817B
:104C10000197F1F7FE01E75BFF4F91838083DE018F
:104C2000A55BBF4FFE01E55BFF4F8081918101973E
:104C300011969C938E93FE01E55BFF4F80819181DD
:104C40000097D1F627C08E01055B1F4FFE01E35B85
:104C5000FF4F60817181828193810E944900DC0154
:104C6000CB01F80191838083DE01A95BBF4FFE0178
:104C7000E55BFF4F808191818D939C93FE01E95B01
:104C8000FF4F808191810197F1F7FE01E95BFF4FB2
:104C90009183808380E00E94491E10924A04109202
:104CA0004F040E94AF1B27C1DE01AA59BF4FFE016E
:104CB000EA59FF4F80818F5F8C9385E090E0FE0181
:104CC000EA59FF4F60810E946A2D0E940918FE0177
:104CD000EA59FF4F8081833008F492C084EF92E05C
:104CE0000E94EC1788EB9BE00E949F18FE01ED5B91
:104CF000FF4F80E090E4ACE9B5E480839183A28328
:104D0000B3838E01015C1F4FFE01ED5BFF4F60819D
:104D100071818281938120E030E04AEF54E40E9467
:104D20001F02DC01CB01F80180839183A283B3834E
:104D3000FE01FF96608171818281938120E030E0E5
:104D400040E85FE30E94250488232CF481E090E092
:104D50009EAF8DAF46C0FE01FF966081718182815A
:104D6000938120E03FEF4FE757E40E94C5031816F8
:104D700064F5FE01ED5BFF4F60817181828193815B
:104D800020E030E040E251E40E941F02DC01CB0150
:104D9000BC01CD010E944900DC01CB019EAF8DAF6B
:104DA0000FC088EC90E09CAF8BAF8BAD9CAD0197B2
:104DB000F1F79CAF8BAF8DAD9EAD01979EAF8DAFE0
:104DC0008DAD9EAD009769F716C0FE01FF9660811C
:104DD0007181828193810E944900DC01CB019EAFE9
:104DE0008DAF8DAD9EAD9AAF89AF89AD9AAD01976C
:104DF000F1F79AAF89AFFE01EA59FF4F10829CCDBF
:104E000086E093E00E94EC1784EF91E00E949F18E7
:104E100080E090E0AAEFB4E48DAB9EABAFABB8AF4F
:104E20006DA97EA98FA998AD20E030E04AEF54E447
:104E30000E941F02DC01CB0189AB9AABABABBCABD0
:104E400069A97AA98BA99CA920E030E040E85FE33A
:104E50000E94250488232CF481E090E098AB8FA772
:104E60003FC069A97AA98BA99CA920E03FEF4FE731
:104E700057E40E94C50318164CF56DA97EA98FA9A9
:104E800098AD20E030E040E251E40E941F02DC01D6
:104E9000CB01BC01CD010E944900DC01CB0198ABE4
:104EA0008FA70FC088EC90E09EA78DA78DA59EA52B
:104EB0000197F1F79EA78DA78FA598A9019798ABA9
:104EC0008FA78FA598A9009769F736CD69A97AA908
:104ED0008BA99CA90E944900DC01CB0198AB8FA74C
:104EE0008FA598A99CA78BA78BA59CA50197F1F7E7
:104EF0009CA78BA721CDE0E3F0E08081882F90E094
:104F000088709070009709F0CAC00E949A0BFE0149
:104F1000EC59FF4F8083FE01EC59FF4F80818F3F9A
:104F200009F44BC0FE01EC59FF4F80810E947123B0
:104F300080914A04282F30E0E9963FAF2EAFE997E1
:104F4000E9968EAD9FADE9978230910551F1E996D2
:104F5000AEADBFADE997A330B10574F4E996EEADFF
:104F6000FFADE9973097B9F0E9962EAD3FADE997DF
:104F70002130310599F021C0E9968EAD9FADE997BA
:104F80008330910599F0E996AEADBFADE997A430B5
:104F9000B10589F012C00E94AF1B0FC00E94C31B55
:104FA0000CC080914F040E94D71B07C080914F0412
:104FB0000E94FD1B02C00E94231C80E090E0A8EC30
:104FC000B2E48FA398A7A9A7BAA76FA178A589A5CE
:104FD0009AA520E030E04AEF54E40E941F02DC0171
:104FE000CB018BA39CA3ADA3BEA36BA17CA18DA180
:104FF0009EA120E030E040E85FE30E942504882382
:105000002CF481E090E09AA389A33FC06BA17CA11E
:105010008DA19EA120E03FEF4FE757E40E94C5031A
:1050200018164CF56FA178A589A59AA520E030E067
:1050300040E251E40E941F02DC01CB01BC01CD0122
:105040000E944900DC01CB019AA389A30FC088EC20
:1050500090E098A38F8F8F8D98A10197F1F798A377
:105060008F8F89A19AA101979AA389A389A19AA157
:10507000009769F714C06BA17CA18DA19EA10E942D
:105080004900DC01CB019AA389A389A19AA19E8F33
:105090008D8F8D8D9E8D0197F1F79E8F8D8F0E9444
:1050A0004519FE01EB59FF4F8083FE01EB59FF4F7D
:1050B0008081882309F41FCFFE01EB59FF4F8081C7
:1050C0008A3219F40E94FD1C16CF80914A04E82F01
:1050D000F0E0E796FFAFEEAFE797E7962EAD3FAD76
:1050E000E7972230310509F48AC0E7968EAD9FAD6F
:1050F000E797833091057CF4E796AEADBFADE797B7
:105100001097D1F0E796EEADFFADE797E130F105EE
:1051100009F43FC0F0CEE7962EAD3FADE7972330C0
:10512000310509F421C1E7968EAD9FADE797843034
:10513000910509F414C2DFCEFE01EB59FF4F8081C7
:10514000813349F480E00E94491E10924F0481E0AF
:1051500080934A04D0CEFE01EB59FF4F8081823309
:1051600051F481E00E94491E81E080934F0481E068
:1051700080934A04C0CEFE01EB59FF4F80818134F9
:1051800029F40E94B01F0E94AF1BB5CE0E94371CAD
:10519000B2CEFE01EB59FF4F8081813341F482E0B2
:1051A00080934A0480914F040E94D71BA4CEFE0135
:1051B000EB59FF4F8081823341F483E080934A04AE
:1051C00080914F040E94FD1B96CEFE01EB59FF4FCC
:1051D0008081833331F484E080934A040E94231C4D
:1051E0008ACEFE01EB59FF4F8081833229F4109261
:1051F0004A040E94AF1B7FCE0E94371C7CCEFE016A
:10520000EB59FF4F8081803308F49FC0FE01EB59BA
:10521000FF4F8081833308F098C080914F0488232A
:1052200029F096E4E5969FAFE59704C0A7E4E596DC
:10523000AFAFE597FE01EB59FF4FE5968FADE597D0
:1052400066E440810E9410110E94091887E193E0F2
:105250000E94EC1788EC90E00E949F1880E090E09C
:10526000AAE7B4E4898F9A8FAB8FBC8F698D7A8D52
:105270008B8D9C8D20E030E04AEF54E40E941F02A9
:10528000DC01CB018D8B9E8BAF8BB88F6D897E89B6
:105290008F89988D20E030E040E85FE30E9425048C
:1052A00088232CF481E090E09C8B8B8B3FC06D8930
:1052B0007E898F89988D20E03FEF4FE757E40E9469
:1052C000C50318164CF5698D7A8D8B8D9C8D20E069
:1052D00030E040E251E40E941F02DC01CB01BC013E
:1052E000CD010E944900DC01CB019C8B8B8B0FC050
:1052F00088EC90E09A8B898B89899A890197F1F7DC
:105300009A8B898B8B899C8901979C8B8B8B8B8942
:105310009C89009769F714C06D897E898F89988D63
:105320000E944900DC01CB019C8B8B8B8B899C8973
:10533000988B8F878F8598890197F1F7988B8F8746
:1053400080914F040E94D71BD6CDFE01EB59FF4F31
:105350008081833231F481E080934A040E94C31B30
:10536000CACD0E94371CC7CDFE01EB59FF4F80818B
:10537000813308F4E5C0FE01EB59FF4F808185338E
:1053800008F0DEC0FE01EB59FF4F8081E82FF0E00E
:10539000E496FFAFEEAFE497E4962EAD3FADE49711
:1053A0002233310521F1E4968EAD9FADE49783332E
:1053B000910544F4E496AEADBFADE497A133B105D9
:1053C00081F026C0E496EEADFFADE497E333F1053E
:1053D000A1F0E4962EAD3FADE4972433310599F06A
:1053E00017C0FE01ED59FF4F82E5808311C0FE0119
:1053F000ED59FF4F87E480830BC0FE01ED59FF4F4D
:1054000082E4808305C0FE01ED59FF4F87E580836C
:1054100080914F04882329F036E4E2963FAFE2976B
:1054200004C087E4E2968FAFE297FE01ED59FF4F8B
:10543000E2968FADE2976CE440810E9410110E94C9
:10544000091885E293E00E94EC1788EC90E00E9436
:105450009F1880E090E0AAE7B4E48B879C87AD8733
:10546000BE876B857C858D859E8520E030E04AEF88
:1054700054E40E941F02DC01CB018F839887A98727
:10548000BA876F81788589859A8520E030E040E889
:105490005FE30E94250488232CF481E090E09E8342
:1054A0008D833FC06F81788589859A8520E03FEFA5
:1054B0004FE757E40E94C50318164CF56B857C85B1
:1054C0008D859E8520E030E040E251E40E941F027D
:1054D000DC01CB01BC01CD010E944900DC01CB0104
:1054E0009E838D830FC088EC90E09C838B838B819F
:1054F0009C810197F1F79C838B838D819E8101971D
:105500009E838D838D819E81009769F714C06F8182
:10551000788589859A850E944900DC01CB019E83AC
:105520008D838D819E819A83898389819A81019758
:10553000F1F79A83898380914F040E94FD1BDBCC95
:10554000FE01EB59FF4F8081833231F481E080937B
:105550004A040E94C31BCFCC0E94371CCCCCFE0156
:10556000EB59FF4F8081813351F481E00E94491E45
:1055700081E080934F0481E080934A04BCCCFE011B
:10558000EB59FF4F8081823349F480E00E94491E2D
:1055900010924F0481E080934A04ADCCFE01EB5998
:1055A000FF4F8081833231F481E080934A040E946E
:1055B000C31BA1CC0E94371C9ECC97FB092E07264B
:1055C0000AD077FD04D00CD006D000201AF47095D4
:1055D00061957F4F0895F6F7909581959F4F0895B7
:1055E000AA1BBB1B51E107C0AA1FBB1FA617B70709
:1055F00010F0A61BB70B881F991F5A95A9F7809525
:105600009095BC01CD0108952F923F924F925F92E9
:105610006F927F928F929F92AF92BF92CF92DF92C2
:10562000EF92FF920F931F93CF93DF93CDB7DEB727
:10563000CA1BDB0B0FB6F894DEBF0FBECDBF0994BB
:105640002A88398848885F846E847D848C849B8412
:10565000AA84B984C884DF80EE80FD800C811B8120
:10566000AA81B981CE0FD11D0FB6F894DEBF0FBE4F
:10567000CDBFED010895FB01DC014150504030F0F9
:105680008D910190801919F40020B9F7881B990BAE
:105690000895AEE0B0E0EFE4FBE20C94122B0D892C
:1056A0001E8986E08C831A8309838FEF9FE79E8390
:1056B0008D839E01275E3F4FCE0101966F89788DC5
:1056C000A9010E946D2B2F813885020F131FF8014D
:1056D00010822E96E4E00C942E2BABE0B0E0E3E7D2
:1056E000FBE20C94042B3C012B015A01FC011782B4
:1056F0001682838181FD03C06FEF7FEFC6C19AE000
:10570000892E1E010894211C311CF3012381F20112
:1057100023FD859123FF81912F01882309F4B2C1D4
:10572000853239F423FD859123FF81912F01853244
:1057300029F490E0B3010E94912DE7CF982FFF2428
:10574000EE249924FFE1FF15D0F09B3269F09C32E2
:1057500028F4903259F0933291F40EC09D3249F002
:10576000903369F441E024C052E0F52A84E0F82A3D
:1057700028C098E0F92A25C0E0E1FE2A22C0F7FC03
:1057800029C0892F80538A3070F4F6FE05C0989C9A
:10579000902C1124980E15C0E89CE02C1124E80EE2
:1057A000F0E2FF2A0EC09E3229F4F6FC6BC140E401
:1057B000F42A07C09C3619F450E8F52A02C098363E
:1057C00049F4F20123FD959123FF91912F01992333
:1057D00009F0B8CF892F8554833018F08052833078
:1057E00038F444E050E0A40EB51E5FE359830FC0C7
:1057F000933631F0933779F0933509F056C020C0D5
:10580000F5018081898342E050E0A40EB51E61015C
:1058100001E010E012C0F501C080D180F6FC03C0A9
:105820006FEF7FEF02C0692D70E042E050E0A40E00
:10583000B51EC6010E94862D8C015FE7F52214C0BB
:10584000F501C080D180F6FC03C06FEF7FEF02C08E
:10585000692D70E042E050E0A40EB51EC6010E9422
:105860007B2D8C0150E8F52AF3FE07C01AC080E2B8
:1058700090E0B3010E94912DEA948E2D90E00817DC
:105880001907A8F30EC0F601F7FC8591F7FE819188
:105890006F0190E0B3010E94912DE110EA94015054
:1058A00010400115110579F7EAC0943611F09936C8
:1058B00069F5F7FE08C0F5012081318142815381ED
:1058C00084E090E00AC0F501808191819C01442729
:1058D00037FD4095542F82E090E0A80EB91E9FE658
:1058E000F92257FF09C050954095309521953F4FBB
:1058F0004F4F5F4FE0E8FE2ACA01B901A1012AE03B
:1059000030E00E94BD2DD82ED21840C0953729F422
:105910001F2D1F7E2AE030E01DC01F2D197F9F36EE
:1059200061F0903720F4983509F0ACC00FC0903783
:1059300039F0983709F0A6C004C028E030E00AC06A
:10594000106114FD146020E130E004C014FD166005
:1059500020E132E017FF08C0F5016081718182818A
:10596000938144E050E008C0F50180819181BC0141
:1059700080E090E042E050E0A40EB51EA1010E943C
:10598000BD2DD82ED2188FE7F82EF122F6FE0BC0CF
:105990005EEFF522D91438F4F4FE07C0F2FC05C01E
:1059A0008FEEF82202C01D2D01C0192DF4FE0DC08E
:1059B000FE01ED0DF11D8081803319F499EEF9227D
:1059C00008C01F5FF2FE05C003C08F2D867809F066
:1059D0001F5F0F2DF3FC14C0F0FE0FC01E1510F05A
:1059E0009D2C0BC09D2C9E0C911A1E2D06C080E292
:1059F00090E0B3010E94912D1F5F1E15C0F304C0FB
:105A00001E1510F4E11A01C0EE2404FF0FC080E35C
:105A100090E0B3010E94912D02FF1DC001FD03C063
:105A200088E790E00EC088E590E00BC0802F867874
:105A300091F001FF02C08BE201C080E2F7FC8DE231
:105A400090E0B3010E94912D06C080E390E0B30185
:105A50000E94912D9A94D914C0F3DA94F101ED0DBE
:105A6000F11D808190E0B3010E94912DDD20A9F706
:105A700006C080E290E0B3010E94912DEA94EE20EE
:105A8000C1F743CEF30166817781CB012B96E2E12A
:105A90000C94202BDC01CB01FC01E199FECF06C068
:105AA000FFBBEEBBE09A31960DB20D9241505040D3
:105AB000B8F70895DC01A40FB51F4150504048F0DD
:105AC000CB01840F951F2E910E946B2D41505040A9
:105AD000D0F70895262FE199FECF9FBB8EBBE09AA9
